:020000040800F2
:10000000280D00209D0100081B260008C1220008C1
:1000100019260008D70800086F300008000000000B
:10002000000000000000000000000000652900083A
:10003000D9080008000000001D26000867290008F4
:10004000B7010008B7010008B7010008B7010008B0
:10005000B7010008B7010008B7010008B7010008A0
:10006000B7010008B7010008B7010008B701000890
:10007000B7010008B7010008B7010008B701000880
:10008000B7010008B7010008B7010008B701000870
:10009000B7010008B7010008B7010008B701000860
:1000A000B7010008B7010008B7010008B701000850
:1000B000B7010008B7010008B7010008B701000840
:1000C000B7010008B7010008B7010008B701000830
:1000D000B7010008B7010008B7010008B701000820
:1000E000B7010008B7010008B701000800F002F8E6
:1000F00000F045F80AA090E8000C82448344AAF17D
:100100000107DA4501D100F03AF8AFF2090EBAE87A
:100110000F0013F0010F18BFFB1A43F0010318473B
:10012000685C0000885C0000103A24BF78C878C181
:10013000FAD8520724BF30C830C144BF04680C60ED
:10014000704700000023002400250026103A28BF35
:1001500078C1FBD8520728BF30C148BF0B60704739
:10016000642900F09F80782900F0D880732900F07E
:100170002083002070471FB51FBD10B510BD00F0D3
:1001800070FB1146FFF7F7FF03F090FE00F08EFBC7
:1001900003B4FFF7F2FF03BC00F096FB0948804769
:1001A00009480047FEE7FEE7FEE7FEE7FEE7FEE759
:1001B000FEE7FEE7FEE7FEE704480549054A064B71
:1001C00070470000C3290008ED0000082807002040
:1001D000280D002028090020280900200FB41CB594
:1001E000074B06AA7B4469460090059800F0B7FAD1
:1001F0000020694600F0C6FA1CBC5DF814FB000044
:100200009D05000070B5044685690068C10601D5EA
:10021000302600E02026C00707D070BDD4E90121B8
:1002200030469047206A401C20626D1EF6D570BD96
:1002300070B5044685690078C00707D170BDD4E960
:10024000012120209047206A401C20626D1EF6D5B7
:1002500070BD70B50C460546012A05D02878800689
:1002600000D5EA69002302E0012305E05B1C93420C
:1002700002D2E05C0028F9D1A869E618C01AA8618A
:10028000286A184428622846FFF7BCFF04E0D5E935
:10029000012114F8010B9047B442F8D32846FFF728
:1002A000C7FF70BD2DE9F04106460024106875298E
:1002B000314616A510D0AFF30080002802DA404284
:1002C00013A507E031688A0701D512A502E04907A6
:1002D00004D511A5012401E0AFF3008000210A221A
:1002E00006F1240709E0B0FBF2FCB0FBF2F302FBDD
:1002F0001C00303078541846491C0028F3D123469E
:100300002A463046BDE8F04100F0CBB900000000BD
:100310002D0000002B0000002000000070B50446F6
:100320000D4621461068AFF300802188090502D5EB
:100330000F4A7A4402E00E4A7A440E32002104F158
:10034000240305E000F00F060009965D5E54491C89
:100350000028F7D120780023000704D5702D02D0A3
:1003600009B1022311322046BDE8704000F099B96E
:10037000E84300002DE9F05F894604464FF0000A8B
:10038000DFF824B1FB44C0F820A02046E16888478C
:1003900000287DD0252806D0D4E901219047206A85
:1003A000401C2062F1E700255F462046E16888474F
:1003B0002028064607DB312E05D2B81910F8200C8C
:1003C00008B10543F1E7A80701D525F00405C4F8F5
:1003D0001CA00027C4F818A02A2E09D0304604F02B
:1003E00097F938B304EB8708303EC8F8186019E075
:1003F00059F8041B204604EB87029161E1688847A5
:10040000012F064618D1E069002820DA25F02005E2
:100410001DE0D8F8180000EB800006EB40003038F3
:10042000C8F818002046E1688847064604F070F9CD
:100430000028EED1012F0AD02E2E08D12046E168E7
:1004400088477F1C0646022F45F02005C4DBA069C3
:10045000002803DA404245F00105A061E80701D019
:1004600025F01005A6B1A6F14100192802D82036C2
:1004700045F400654A463146204625604D46FFF763
:100480006FFE60B1012807D0ED1D25F0070000E0E8
:1004900007E000F1080978E705F1040975E730463F
:1004A0007AE7206ABDE8F09FBE43000040EA0103FE
:1004B000024630B59B0710D14FF0013400E008C26E
:1004C00008C91D1B9D4315EAC41FF8D013F0FF0196
:1004D00002F8011B0DD01B0AF8E711F8013B002BB5
:1004E00002F8013B05D011F8013B002B02F8013B5B
:1004F000F3D130BD10B5431C02E010F8011B71B1FF
:100500008107FAD14FF0013202C88C1A8C4314EAE9
:10051000C211F9D0C01A0A0603D0C01E10BDC01AFD
:1005200010BD0A0401D0801E10BD0902FCD0401E7F
:1005300010BD032A40F2308010F0030C00F015804B
:1005400011F8013BBCF1020F624498BF11F801CBD6
:1005500000F8013B38BF11F8013BA2F1040298BF3B
:1005600000F801CB38BF00F8013B11F0030300F0A5
:100570002481083AC0F0088051F8043B083A51F849
:1005800004CBA0E80810F5E7121D5CBF51F8043B4E
:1005900040F8043BAFF30080D20724BF11F8013BC1
:1005A00011F801CB48BF11F8012B24BF00F8013B23
:1005B00000F801CB48BF00F8012B704702F0FF03A1
:1005C00043EA032242EA024200F02BB94FF0000254
:1005D00000B5134694469646203922BFA0E80C5039
:1005E000A0E80C50B1F12001BFF4F7AF090728BF14
:1005F000A0E80C5048BF0CC05DF804EB890028BF90
:1006000040F8042B08BF704748BF20F8022B11F0B8
:10061000804F18BF00F8012B704700004FF0013CDD
:1006200050F8042B51F8043B9A4221D1A2EB0C0361
:10063000934313EACC1317D150F8042B51F8043B21
:100640009A4215D1A2EB0C03934313EACC130BD1BE
:1006500050F8042B51F8043B9A4209D1A2EB0C0349
:10066000934313EACC13DBD04FF00000704700BF78
:10067000D01A01BAB1FA81F101F0180122FA01F0A1
:10068000CB40DBB2C0B2C01AC1F120012CFA01F399
:10069000D11A914311EAC311E6D1704770477047F0
:1006A00070472DE9F0470D4699469246044600F101
:1006B00024080168880604D5E06921F01001216052
:1006C00000E00120A84201DD471B00E00027A169EE
:1006D0007A1902EB0900081AA0612078C00602D43A
:1006E0002046FFF78FFD002608E0D4E901211AF823
:1006F00006009047206A401C761C20624E45F4DBC1
:100700002078C0060AD52046FFF77CFD06E0D4E934
:10071000012130209047206A401C2062381EA7F13A
:100720000107F4DC07E0D4E9012118F8050090473F
:10073000206A401C2062281EA5F10105F3DC20463A
:10074000FFF776FD2078000602D50220BDE8F0878D
:100750000120FBE701694A1C02610878704700B577
:100760008FB0CDE901310021059105497944CDE9EA
:10077000031011466846FFF7FDFD0FB000BD0000F5
:10078000E5FFFFFF0A6802F8010B0A60704710B529
:10079000436913B1AFF3008001E0FFF75AFD012078
:1007A00010BD127800F124010A7000224A70012263
:1007B000EDE711684FF0FF32E9E710B5203AC0F0DD
:1007C0000B80B1E81850A0E81850B1E81850A0E824
:1007D0001850203ABFF4F5AF5FEA027C24BFB1E8BD
:1007E0001850A0E8185044BF18C918C0BDE8104000
:1007F0005FEA827C24BF51F8043B40F8043B08BF09
:100800007047D20728BF31F8023B48BF11F8012BCF
:1008100028BF20F8023B48BF00F8012B70474FF07B
:1008200000020429C0F0128010F0030C3FF4D0AE97
:10083000CCF1040CBCF1020F18BF00F8012BA8BFCB
:1008400020F8022BA1EB0C01FFF7C2BE5FEAC17CCE
:1008500024BF00F8012B00F8012B48BF00F8012B42
:100860007047754600F02CF8AE46050069465346C1
:1008700020F00700854618B020B5FFF79DFCBDE8C5
:1008800020404FF000064FF000074FF000084FF0F7
:10089000000BAC46ACE8C009ACE8C009ACE8C00944
:1008A000ACE8C00921F007018D46704710B5044639
:1008B000AFF300802046BDE81040FFF769BC0000A0
:1008C000004870476000002001491820ABBEFEE7D9
:1008D000260002007047FEE770470000A84800218C
:1008E000C161A848016841F004010160016841F05C
:1008F00040010160704700BFA1490022CA61A149BF
:100900000A6842F002020A604860086840F040004D
:10091000086070472B48016811F0100F01D10021C9
:1009200005E09749CA6942F00202CA6110210268D3
:1009300012F0040F06D0924A41F00401D36943F04B
:100940000103D361026912F0010F08D08C4AD36908
:1009500043F00403D361026922F0010202610160E5
:10096000704700BFF8B5174E044600F0FDF9054684
:10097000671C306810F0010F09D0002FF9D024B1A6
:1009800000F0F2F9401BA042F3D9032016E03068D2
:1009900010F0200F1CBF20203060306810F0100FC6
:1009A00009D1306910F0010F05D1306810F0040F43
:1009B00001D1002002E0FFF7ADFF0120C0B201B07D
:1009C000F0BD00BF0C200240F0B585B01D461646B4
:1009D0000F46044600F0D8F8391B00200394890A1A
:1009E0000190009001A80491694600F021F80A9A4C
:1009F00002202946002300F06FF8022021463246EB
:100A0000002300F069F800F05FF805B0F0BD0000C9
:100A1000B0B5044600F0A8F90546D548611C007839
:100A200018BF044400F0A0F9401BA042FAD3B0BDA7
:100A30002DE9F041DFF8488105460C4698F818008A
:100A4000012801D102201BE0012088F818004CF297
:100A500050302E68FFF786FF022E0CD160B9FFF7E9
:100A60003DFF4CF25030FFF77DFF46490A6822F007
:100A700004020A6001E030B10120002188F818105A
:100A8000C0B2BDE8F0814FF0FF303E4F2060012042
:100A9000A9680E4610E03046FFF72EFF4CF25030AA
:100AA000FFF760FF3968002821F00201396009D1A1
:100AB000A96806F580660020EA6801EB82218E4273
:100AC000E9D3DAE72660D8E72E48016841F08001D3
:100AD00001600020704700BF2DE9F84FDFF8A080CB
:100AE00081461C4692460E4698F81800012801D10E
:100AF000022042E0012088F818004CF25030FFF745
:100B000031FFB8BBB9F1020F4F461E4D4FF0000B3D
:100B100018BF0427B9F1010F08BF4F466FF01F0936
:100B20005FFA8BF0874224D900210201C8F81C101B
:100B30002AFA02F2296841F0010129602021A1EB83
:100B4000001104FA01F1114309EB0012002AA8BFB9
:100B500024FA02F126F810104CF25030FFF702FF91
:100B600029680BF1010B002821F001012960D7D081
:100B700000E00020002188F8181001B0BDE8F08FD7
:100B800008070020102002400748C16811F0800FBC
:100B900004BF002070470549016005490160C06835
:100BA000C0F3C010704700BF042002402301674516
:100BB000AB89EFCD2DE9FC4F594A04234FF0000BD0
:100BC0004FF001084FF00F0E4FF000090025904242
:100BD00008BF032300930A6832FA05F308BFBDE893
:100BE000FC8F08FA05F73A4200F096804A68032A1B
:100BF00016D9112A24D0122A26D04D4B9A4213D04E
:100C00004C4B9A4210D04C4B9A420DD04B4B9A42CF
:100C10000AD04B4B9A4207D04A4B9A4204D020E06C
:100C2000DFE802F00216191D8A6832B1012A4FF07E
:100C3000080914BF4761076113E04FF0040910E091
:100C4000CA6802F104090CE0CA6802F10C0908E064
:100C5000D1F80C9005E0CA6802F1080901E04FF0F4
:100C60000009082D5A46044628BF203A28BF0434FC
:100C700026680EFA02F309FA02F226EA03031A437F
:100C80002260CA79D20647D5284A0BF00C0C1346CD
:100C9000126842F001021A601A680EFA0CF302F0B0
:100CA000010201921F4A019CAC08A2F57E7656F81B
:100CB000242022EA030A244A904208D0234A904280
:100CC00007D0234A009B904208BF022302E0002382
:100CD00000E0012303FA0CF242EA0A0246F824205B
:100CE000104E114C4A68B36812F4801F0CBFBB430E
:100CF0003B43B3609302236854BFBB433B43236031
:100D00009303736854BFBB433B43D20373603268A1
:100D100054BFBA433A4332600BF1040B01355AE732
:100D200000140140000401400C040140181002406E
:100D3000000011100000121000002110000022100D
:100D4000000031100000321000080140000C01408A
:100D5000001001408068084018BF01207047002A39
:100D600008BF09040161704701488068704700BFEF
:100D700040000020B0B5044658B394F83D0028B9AF
:100D8000002084F83C00204600F042FA242084F839
:100D90003D002068016821F001010160016841F413
:100DA00000410160016821F40041016000F094FB02
:100DB0004C494D4B00224D4D88424FF0000138BF49
:100DC0000121984238BF01226368AB4238BF0A460E
:100DD0000AB10120B0BD4649B0FBF1F221684D686F
:100DE00025F03F0515434D600D6A25F03F0C414D40
:100DF000AB4213D80132013842EA0C020A625A00AF
:100E00004CF6FF73B0FBF2F001306FF31F30042893
:100E100098BF0420CA6922EA030C3AE04FF49675A1
:100E2000A0F1010E6A434FF47A75B2FBF5F24CF66D
:100E3000FF75013242EA0C020A62CA6922EA050C15
:100E4000A26842B1192004255843BEFBF0F00130DE
:100E500065F31F3006E003EB4300BEFBF0F001300A
:100E60006FF31F30000509D052B1192004225843F6
:100E7000BEFBF0F0013062F31F3008E0012008E013
:100E800003EB4300BEFBF0F001306FF31F3040F482
:100E9000004040EA0C00C8610868D4E9072320F04C
:100EA000C000104348F2FF3218430860886890433E
:100EB000D4E90323184310438860C868D4E90523A4
:100EC00020F0FF0010431843C860086840F001009C
:100ED000086000202021206484F83D10206384F8FD
:100EE0003E00B0BD80841E0000093D00A1860100C7
:100EF00040420F00A08601002DE9FE4F1D4690469E
:100F000089460446FFF730FF074694F83D00202845
:100F10000BD15149204601221923009701F017FAFD
:100F200018B994F83C00012806D14FF0020B5FFA83
:100F30008BF003B0BDE8F08F01204FF0000A09F0FC
:100F4000FE09A0264FF0010B84F83C0020680168E0
:100F500011F0010F02BF016841F001010160016859
:100F600021F400610160242184F83D103B49C4F85C
:100F700040A0E16235E0C1F81090FFF7F5FE0746AA
:100F800007E0FFF7F1FE15B1C01BA84201D984F8B4
:100F90003D6020684169426994F83D30A02B05D03E
:100FA00001F0020102F480621143EAD0202184F8AA
:100FB0003D104169026842F4007211F0020F0260B4
:100FC00028D127490122192341612349204600974E
:100FD00001F0BDF90028AAD10AF1010AC24532D2B6
:100FE0002068016800222B4641F480710160204690
:100FF0004FF00111009701F0AAF921680028BAD03A
:1010000008684FF0030B10F4807F1CBF4FF4007092
:1010100020648CE70025012219234FF0010B029573
:10102000416902910C49806902900298009720461C
:1010300001F08DF900287FF47AAF202084F83C502D
:101040004FF0000B05E000204FF0010B84F83C004E
:10105000202084F83D006AE7020010000000FFFF36
:10106000FFFBFFFF2DE9FC471F4616468946044655
:10107000FFF77AFE824694F83D0020280ED1634D9A
:10108000204601221923CDF800A005F5702101F0BA
:101090005EF918B994F83C00012804D10220C0B2CE
:1010A00002B0BDE8F0870120A5F10212DDF828802A
:1010B00084F83C002068016811F0010F02BF01684C
:1010C00041F001010160016821F40061016021210A
:1010D00084F83D10102184F83E10002121646785BA
:1010E000618DE26266622185E16A11F5803F18BF79
:1010F00001291CD1016841F48071016020464FF044
:10110000011100224346CDF800A001F020F940B1C2
:101110002068006810F4807F1CBF4FF400702064CA
:1011200025E02069B0F5804F07D1FE2014E00829A2
:10113000E0D0216B1229DDD0E0E70620216842468D
:10114000534600EAD91040F0F0000861A91D20467E
:1011500001F046F958B9FF20216800EA090042462B
:10116000534608612046294601F03AF908B10120AA
:1011700095E700204FF6FF760190206841690191C4
:10118000806901900198208D88B3204641465246DF
:1011900001F080F910BB606A2168024612F8013B39
:1011A0000B616262628D013A6285228D571E27852E
:1011B00037424B6918BF13F0040308D0437802305C
:1011C0000B616062901E2085608D0138608520462D
:1011D0004146524601F08EF80028D4D0206C0428F5
:1011E000C5D12068016841F400710160BFE7206843
:1011F000016841F400710160202084F83D00002066
:1012000084F83C0084F83E0049E700BF020001007A
:1012100010B586B00021CDE90411CDE902110168B5
:10122000114881421DD13A4C00F53840216841F007
:1012300008012160216801F0080101910199122142
:101240000391C02102910321059102A9FFF7B2FC8D
:10125000606840F400106060606800F40010019065
:10126000019806B010BD00BF005400401948017835
:10127000826811448160704780B50748016841F079
:1012800010010160032000F069F80F2000F006F85B
:1012900000F022F8002080BD0020024070B50D4E05
:1012A00004464FF47A713078B1FBF0F09449096844
:1012B000B1FBF0F000F09EFC01250F2C08D838B9E6
:1012C0004FF0FF3021460022002500F025F8746021
:1012D000284670BD4000002082B00D4802220168FF
:1012E00041F001010160016801F0010101910199E2
:1012F000416841F080514160406800F080500090AA
:1013000000980448016862F31A61016002B07047F6
:10131000181002400400014010B5164B1B68C3F3BF
:10132000022E0EF1040CAEF103048EF00703BCF1A3
:10133000070F4FF0010C38BF0024042B28BF0423F3
:101340000CFA03F3013B19400CFA04F3013BA140F2
:101350001A401143BDE8104001F08ABE05494FF61E
:10136000FF030A681A4060F30A220348104308602A
:10137000704700BF0CED00E00000FA050848016866
:1013800041F002010160704705480129026822F01E
:10139000040202600FBF30BF40BF20BF20BF7047B4
:1013A00010ED00E02DE9F04188460446002800F0E9
:1013B0008880464F4FF48050395801F0070141456D
:1013C0000AD2395821F0070141EA0801395038584A
:1013D00000F00700404574D1206810F0020F11D0D2
:1013E000410742BF796841F4E0617960010742BF7B
:1013F000796841F4605179607968A26821F0F00160
:1014000011437960C00727D06068012804D139688A
:1014100011F4003F08D154E03968022802D1890153
:1014200002D44EE089074CD5796821F003010843C6
:101430007860FFF799FC064641F288357868616864
:1014400000F00C00B0EB810F06D0FFF78DFC801B85
:10145000A842F3D9032035E04FF48050395801F009
:10146000070141450AD9395821F0070141EA08012D
:101470003950385800F00700404522D1206810F05C
:10148000040F05D07968E26821F4E06111437960C6
:10149000000706D57868216920F4605040EAC10051
:1014A000786000F031F87968094AC1F30311515CA2
:1014B000C8401349086007480068FFF7EFFE0020A6
:1014C00000E00120C0B2BDE8F08100BF0010024082
:1014D00057470008440000200948FA49094A0068B3
:1014E0000968C1F30221515CC8407047F748F549CB
:1014F000044A00680968C1F3C221515CC8407047C2
:101500005C0000206747000810B50D4C0D482268AC
:1015100002F00C03082B18BF10BDC2F383430AA1CD
:1015200012F4803FCB5C02D10C48584310BD2168B7
:1015300009A25843C1F34041515CB0FBF1F010BD2A
:101540000410024000127A0002030405060708098D
:101550000A0B0C0D0E0F10100102000000093D00D7
:101560002DE9FE430446002800F05C812078D44E2B
:10157000D44FC007B14650D0386800F00C000428A2
:1015800018D0386800F00C00082803D1386810F42F
:10159000803F0FD16068A0B1B0F5803F06D03168C0
:1015A000B0F5A02F25D141F480203060306840F4A0
:1015B000803024E0306810F4003F2ED0606860BBBB
:1015C00030E1306820F480303060306820F48020D2
:1015D0003060FFF7C9FB0546D9F800004E4610F40D
:1015E000003F1AD0FFF7C0FB411B03206429F3D949
:1015F00019E121F480303060306820F480203060C0
:10160000FFF7B2FB0546306810F4003F05D1FFF745
:10161000ABFB401B6428F6D9E6E0207880072FD585
:10162000386810F00C0F08D0386800F00C0008285B
:101630000BD1386810F4803F07D1306810F0020FEA
:1016400017D02069012814D0ECE021699E480029B8
:1016500000F08A8001210160FFF786FB05463068B3
:1016600010F0020F05D1FFF77FFB401B0228F6D9CF
:10167000BAE03068616920F0F80040EAC1003060EB
:101680002078000730D5A06980B18F480121C0F8CB
:101690008014FFF769FB0546386A10F0020F16D177
:1016A000FFF762FB401B0228F6D99DE08648002127
:1016B000C0F88014FFF758FB0546386A10F0020F97
:1016C00012D0FFF751FB401B0228F6D98CE07F486F
:1016D0004FF4FA510068B0FBF1F0029000BF02989D
:1016E000411E00280291F9D12078400740F1858001
:1016F000B86910F0805F0BD1B8694FF0010840F075
:101700008050B861B86900F080500190019801E004
:101710004FF000086E4E484659F8060010F4807FDE
:1017200014D159F8060040F4807049F80600FFF71C
:101730001BFB0546484659F8060010F4807F05D18A
:10174000FFF712FB401B6428F4D94DE0E068F0B1CC
:10175000012805D0F969052831D141F00400F8616C
:10176000F86940F0010030E000210160FFF7FCFA69
:1017700005464846D9F8000010F0020F3FF480AF4C
:10178000FFF7F2FA411B03200229F2D94BE0F86976
:1017900020F00100F861F86920F00400F861FFF71B
:1017A000E3FA054641F28836F86910F0020F1DD0C1
:1017B000FFF7DAFA411B0320B142F5D933E021F0FB
:1017C0000100F861F86920F00400F861FFF7CCFA35
:1017D000054641F28836F86910F0020F06D1FFF78E
:1017E000C3FA401BB042F6D903201CE0B8F1000F49
:1017F0001EBFB86920F08050B861E669002E5DD048
:10180000386800F00C00082811D1012E0AD0386881
:10181000216A00F480328A4204D1616A00F47010B7
:1018200088424BD00120C0B203B0BDE8F083264906
:10183000002088460866FFF797FA0546022E0DD16C
:1018400046464846D9F8000010F0007F13D0FFF755
:101850008BFA411B03200229F3D9E4E74846D9F863
:10186000000010F0007F29D0FFF77EFA411B032013
:101870000229F3D9D7E7206AB0F5803F05D139684E
:10188000A26821F40031114339603968626A10435B
:1018900021F474110843386001203066FFF764FAC0
:1018A00004464846D9F8000010F0007F06D1FFF743
:1018B0005BFA011B03200229F3D9B4E70020B2E749
:1018C0000010024004100240000042425C00002070
:1018D0000060FEFF70B5044630B1606A30B1002090
:1018E000206104F1140007E001264CE06068B0F5C7
:1018F000827F03D004F11C000021016000264FF01C
:10190000000CA66294F8510038B9204684F8506063
:1019100000F03CF8A06A00F4005C022184F8511049
:1019200021680A6822F040020A60D4E90123D4E960
:10193000030502F4827203F4044300F400601A43C6
:10194000104305F002021043626902F001021043E5
:10195000A26902F400731843E36903F038031843E3
:10196000236A03F08003184340EA0C000860042057
:1019700000EA12404860C86920F40060C861012094
:10198000666584F85100304670BD000070B586B0C1
:1019900000261A4CCDE90466CDE902660068A4F57C
:1019A0005441884227D1164802AD416841F4804134
:1019B0004160416801F4804101910199016841F061
:1019C000080101602946006800F0080001900198B4
:1019D000022003904FF420400290032005902046FF
:1019E000FFF7E8F84FF4804003962946029020461E
:1019F0000496FFF7DFF806B070BD00BF000C014091
:101A0000181002402DE9F843044690F850001E4695
:101A100015460F46012801D10220CAE0012084F8B2
:101A20005000FFF7A1F994F85110814601296FD1B8
:101A30000120002F00F0BA80002D00F0B780002EAA
:101A400000F0B48094F85100731EDDF82080B3FAE2
:101A500083F304284FEA53131CBF052084F8510078
:101A600000206065E687A563A6872763A686C4E98C
:101A70001000E6862068016811F0400F02BF01687F
:101A800041F0400101606168E268B1FA81F1B2F5AC
:101A9000006F4FEA511141EA030147D131B137F8E4
:101AA000021BC1602763E08E0138E086012608F141
:101AB0000105E08E10B9E08F00287ED02068816893
:101AC00011F0020F0CD0E18E012E09D141B1216B32
:101AD000002631F8022BC2602163E18E0139E186D4
:101AE000816811F0010F0AD0E18F41B1C068A16B8C
:101AF000012621F8020BA163E08F0138E087FFF790
:101B000033F9002DD5D0A0EB09004045D1D349E0F1
:101B10006068B0F5827F07D10220042946D1A16810
:101B200000293FF485AF41E002203FE039B1397828
:101B30000173206B01302063E08E0138E0860126BE
:101B400008F10105E08E08B9E08FB0B32068816824
:101B500011F0020F0ED0E18E012E0BD151B1216B8D
:101B6000002609780173216B206801312163E18E21
:101B70000139E186816811F0010F0BD0E18F49B185
:101B8000C068A16B01260870A06B0130A063E08FD4
:101B90000138E087FFF7E8F8002DD3D0A0EB09006B
:101BA0004045CFD3012084F851000320002184F860
:101BB0005010C0B201B0BDE8F083204641464A460D
:101BC00000F02DFD18B1202060650120EEE7A0682F
:101BD00038B9002000902068C168009180680090AA
:101BE0000098616D01200029E0D184F851000020A7
:101BF000DCE70000411E0020B0EB116F1CBF01208C
:101C00007047084AF023516002490B700721906029
:101C10001160704723ED00E00248016821F00201E5
:101C20000160704710E000E090F83C300222012B88
:101C300028D080B580F83D20012280F83C20026841
:101C40005368D2F808C0B2F1804F23F0700E0B68D1
:101C500043EA0E035360BDE8804008D0F34B9A423C
:101C600005D0F04B9A4202D0EF4B9A4204D149681A
:101C70002CF08003194391600022012180F83C2060
:101C800080F83D10D0B2704710B5044630B394F8D8
:101C90003D0028B9002084F83C00204600F020F8E0
:101CA0000220211D84F83D00206800F08BFE0120F9
:101CB00084F8460084F83E0084F83F0084F8400031
:101CC00084F8410084F8420084F8430084F844001A
:101CD00084F8450084F83D00002010BD012010BDAF
:101CE0000068B0F1804F18BF704781B005480168A7
:101CF00041F001010160006800F0010000900098CF
:101D000001B070471C10024090F83D1001291CBF23
:101D100001207047022180F83D100068B0F1804F2B
:101D200008D0C249884205D0BE49884202D0BE4987
:101D3000884204D1816801F00701062903D00168B7
:101D400041F0010101600020704700BF10B590F81C
:101D50003C2004460220012A70D084F83D00012076
:101D60004FF6777384F83C00206882689A4382605B
:101D70000A6812B3102A20D0202A1ED0302A1CD084
:101D8000402A21D0502A2BD0602A35D0B2F5005FEE
:101D90003ED0B2F5805F4AD0702A51D1D1E90123FB
:101DA000C9681A4342EA0121826822F47F42114342
:101DB0008160816841F0770138E0816821F0770126
:101DC000114341F0070131E04B68CA68194600F041
:101DD000E7FE2068816821F0770141F0470125E0A6
:101DE0004B68CA68194600F0DBFE2068816821F064
:101DF000770141F0570119E04B68CA68194600F0B5
:101E0000E0FE2068816821F0770141F067010DE074
:101E1000D1E90123C9681A4342EA0121826822F408
:101E20007F4211438160816841F4804181600020DC
:101E3000002184F83C10012184F83D10C0B210BD8F
:101E40000120F5E7FEB50021CDE90411CDE902112D
:101E50000068B0F1804F19D1BE48016841F0080117
:101E600001600821006800F008000190019802203C
:101E7000039002910590064802A9FEF79BFE0548D3
:101E8000054A01681140054A1143016006B080BD52
:101E9000000C014004000140FFFCFFF800010007B6
:101EA000B0B5044690F83C000D46012801D102204F
:101EB00041E04FEAB2010120032984F83C0037D801
:101EC000DFE801F0020A12222068294600F0B6FD80
:101ED000206850F8181F0EE02068294600F0DAFD4F
:101EE000206850F8181F16E02068294600F002FE0E
:101EF000206850F81C1F41F008010160016821F0C2
:101F00000401016029690FE02068294600F022FEE3
:101F1000206850F81C1F41F400610160016821F441
:101F20008061016029690902026811430160002093
:101F3000002184F83C10C0B2B0BD10B5044630B3E7
:101F400094F83D0028B9002084F83C00204600F0B9
:101F500020F80220211D84F83D00206800F032FDA9
:101F6000012084F8460084F83E0084F83F0084F89D
:101F7000400084F8410084F8420084F8430084F86B
:101F8000440084F8450084F83D00002010BD012085
:101F900010BD704710B5044641B1082909D0042985
:101FA00014BF04F1410004F13F0004E004F13E00DD
:101FB00001E004F14000007801281CBF012010BDA1
:101FC000022041B1082909D0042914BF84F8410036
:101FD00084F83F0004E084F83E0001E084F840000B
:101FE0002068012200F01AFD20680E49884209D0BD
:101FF000B0F1804F0AD00C49884207D00B49884283
:1020000004D008E04A6C42F400424A64816801F05E
:102010000701062903D0016841F001010160002099
:1020200010BD00BF002C014000080040000400402B
:1020300010B5044648B394F8410028B9002084F84C
:102040004000204600F024F8242084F84100206855
:10205000C16821F40051C160204600F08FFF206864
:10206000016921F490410161416921F02A01416136
:10207000C16841F40051C16000202021606484F8EF
:10208000411084F84210606310BD012010BD0000B3
:1020900070B586B000262D49CDE90466CDE902660B
:1020A0000068884229D02A4988424DD129482A4CC3
:1020B00002AD016841F480410160016801F4804192
:1020C00001910199016841F004010160294600680D
:1020D00000F0040001900198022003904FF400707A
:1020E0000290032005902046FEF764FD00204FF487
:1020F000806103900291049022E01648164C02ADD4
:10210000416841F400314160416801F400310191BE
:102110000199016841F0040101602946006800F05E
:1021200004000190019802200390042002900320F3
:1021300005902046FEF73EFD082003960290049687
:1021400020462946FEF736FD06B070BD004400402B
:102150000038014018100240000801402DE9F84302
:10216000054690F842001C461746884620281ED196
:10217000B8F1000F4FF0010018BF002F18D04FF03A
:1021800000092220C5F8449085F84200C5F8309037
:10219000FEF7EAFDAF85EF850646A868B0F5805FDB
:1021A0000AD12F69002F0CBFC146474629E0022003
:1021B000C0B201B0BDE8F083474622E028462021A6
:1021C0003246234600F01CFF18BB5FB1A868B0F58B
:1021D000805F0FD008B9286960B12868406800F0B6
:1021E0007F0009E02868002740686FF35F2029F826
:1021F000020B03E02868406807F8010BE88D0138FE
:10220000E885E88D0028D9D1202085F842000020FB
:10221000CEE70320CCE72DE9F843044690F84100CF
:102220001D461746884620281CD1B8F1000F4FF0F4
:10223000010018BF002F3FD04FF000092120C4F843
:10224000449084F84100FEF78FFDA784E78406469A
:10225000A068B0F5805F07D12769002F0CBFC14689
:10226000474619E0022027E0474615E02046802136
:1022700032462B4600F0C4FEC0B91FB117F8011B4F
:10228000206805E039F8021B206800276FF35F2102
:102290004160E08C0138E084E08C0028E6D12046E3
:1022A000402132462B4600F0ABFE08B1032003E08C
:1022B000202084F841000020C0B201B0BDE8F083C6
:1022C000FEE7000002680021536913F4806F0ED00E
:1022D0006F4B53612022016380F83D2080F83E104F
:1022E00080F83C10016C41F00401016401210846B2
:1022F000704700BFF8B515460E4604464F1C2068CF
:10230000406910F0040F1FD12046FFF7DBFFC8B96A
:10231000002FF4D0FEF728FD16B1401BB042EED9D5
:102320002068406910F0040FE9D1002020212063CB
:1023300084F83D1084F83E0084F83C00206C40F0A6
:1023400020002064012000E0002001B0F0BD2DE954
:10235000F047DDF820909846164604468FB201F407
:102360007F0503F1010AB5F5803F4FF0180008BF63
:102370001420216808583840C01BB0FA80F040098A
:10238000B0421CBF0020BDE8F087BAF1000FEAD0D0
:10239000FEF7EAFCB8F1000F03D0A0EB09004045BE
:1023A000E1D9B5F5803F4FF0180008BF142021682F
:1023B00008583840C01BB0FA80F04009B042D2D172
:1023C00000202021206384F83D1084F83E0084F82A
:1023D0003C00206C40F0200020640120BDE8F08724
:1023E0002DE9F8439846914604468FB201F47F05E3
:1023F000561C2068B5F5803F06D1014651F8142FD0
:102400003A40BA4206D12AE081693940B94226D021
:1024100000F11401096811F4806F22D1002EE8D078
:10242000FEF7A2FCB9F1000F03D0A0EB080048456D
:10243000DFD92068B5F5803F0CBF4069806938401E
:10244000B842D6D000202021206384F83D1084F8C3
:102450003E0084F83C00206C40F0200013E0002097
:1024600013E0016841F400710160094941610020F5
:102470002021206384F83D1084F83E0084F83C005D
:10248000206C40F004002064012001B0BDE8F0831E
:10249000FFFBFFFFF8B515460E4604464F1C2068AB
:1024A000406910F0800F1FD12046FFF70BFFC8B91D
:1024B000002FF4D0FEF758FC16B1401BB042EED905
:1024C0002068406910F0800FE9D1002020212063AE
:1024D00084F83D1084F83E0084F83C00206C40F005
:1024E00020002064012000E0002001B0F0BD0000C9
:1024F0002DE9F041804606980024C8E90B20089891
:10250000C8F83400C8F810300798C8F814000998C3
:10251000C8F818000A98C8F81C000C98C8F82000E1
:102520000E98C8F824001098C8F828000B98C8F82E
:1025300000000D98C8F804000F98C8F8080011981A
:10254000C8F80C0008F138000BE0002504E005EBAA
:10255000450601358F5D8755042DF8D101310130D5
:102560000134032CF1D10A4C104699B20122A04744
:10257000B8F81410D8F830000122A047B8F81810A5
:10258000D8F8340001222346BDE8F041184700BFC7
:102590005F0D00082DE9F8434FF00008044680F86D
:1025A00044801EE004EB88070022002637F8101F45
:1025B000B94659F81C0FFEF7D2FB08E004EB86057C
:1025C00034F82610E869FEF7C5FB78B10136032E12
:1025D000F4D93988D9F800000122FEF7C0FB08F1D0
:1025E0000108B8F1020FDDD9002012E03220FEF719
:1025F0000FFA34F82610E869FEF7ACFB0028F8D093
:1026000004EB080006EB4601084490F8380084F813
:10261000440001B0BDE8F083FEE7FEE7704710B567
:1026200013460A468021044600F00AF828B1606D7E
:1026300040F020006065032000E00020C0B210BD23
:102640002DE9FC411E4617460D460446FEF78CFB5D
:10265000301AC619FEF788FB804624480137006807
:10266000C0F3CB30704301900DE067B1FEF77CFB07
:10267000A0EB0800B04210D201980199013900285E
:10268000019108BF0646206880682840A842ECD027
:102690000020C0B202B0BDE8F0812068416821F09E
:1026A000E00141606168B1F5827F0AD1A168B1F5AE
:1026B000004F02D0B1F5806F03D1016821F04001D5
:1026C0000160A16AB1F5005F07D1016821F40051F2
:1026D0000160016841F400510160002084F850005D
:1026E000012084F851000320D3E700BF5C000020E4
:1026F00080B59A484FF48061FDF768FFBDE88040DF
:1027000000F00EB97F2898BF3F2900D9704710B557
:102710000A4C01F0070C0123012A03FA0CF3DFF83D
:102720003CC204EA011108441CF80010BDE8104046
:1027300014BF994319430CF80010704780FF0F0035
:102740006C4A518010807047B0B54548782101220D
:1027500044F62063FEF7D0FB002400287ED1804D94
:1027600078200021AE22A847782000212022A84707
:10277000782000211022A84778200021B022A84705
:1027800078200021C822A847782000210022A847ED
:10279000782000211022A847782000214022A84755
:1027A000782000218122A84778200021FF22A84715
:1027B00078200021A122A84778200021A622A8473E
:1027C00078200021A822A847782000213F22A8478E
:1027D00078200021A422A84778200021D322A847EE
:1027E000782000210022A84778200021D522A84780
:1027F00078200021F022A84778200021D922A8477C
:10280000782000212222A84778200021DA22A84738
:10281000782000211222A84778200021DB22A84737
:10282000782000212022A847782000218D22A84767
:10283000782000211422A84778200021AF22A84741
:10284000782000212E22A84744484FF48061FDF7EC
:10285000BDFE00F065F82748046001242046B0BDA5
:10286000500200202DE9FE4F224C0E4615463378CB
:10287000218819447F2904D8628871780A443F2A44
:1028800001D9002033E0B5FA85F201902038002705
:102890004FF4004B4FEA521A029020E002987268FF
:1028A0004FF0000900FB017132F8118012E06088DE
:1028B0002BFA09F212EA080F00EB070120880CBF7F
:1028C00052462A4689B2484480B2FFF71BFF33784C
:1028D00009F10109D9B28945E9D371780137C9B243
:1028E0008F42DBD32188D8B208442080019803B0FE
:1028F000BDE8F08FC000002070B514460D460646B6
:1029000009E029462246FFF7ADFF014616F8010B04
:10291000814218BF70BD30780028F2D1002070BD10
:1029200070B50E4C0E4E0025082D08BF70BDA5F1E8
:1029300050000021C2B27820B04778200021002248
:10294000B047782000211022B0477820402122464D
:10295000802301F00BFE80340135E5E708030020F9
:102960004D4500087047FEF781BCB0B590B006AC8D
:102970002421201DFDF72AFE01A81421FDF726FEC3
:10298000012000250A900220069010200B9020467E
:102990000D95FEF7E5FD18B1EFF3108072B6FEE776
:1029A0000F20CDE90455CDE902550021019001A881
:1029B000FEF7F8FC18B1EFF3108072B6FEE710B026
:1029C000B0BD7047B0B50368744DB0F1804F07D00B
:1029D000104CA04204D0A84202D00F4CA04207D114
:1029E0004C6823F45C73CA6824F440742343134393
:1029F0004A6923F08003A84242EA030202608A681F
:102A0000C2620A68826204BF0969296301214161C7
:102A1000B0BD00BF000400400008004001F01F01ED
:102A2000012303FA01FC036A02FA01F123EA0C0311
:102A30000362026A114301627047000070B5026AC6
:102A4000036A23F0010322F002020362D0F804E0DB
:102A5000D0F818C08C680B6822432CF0730444EA49
:102A6000030C4E4B98420CD1CE68D1E905452EF4AB
:102A7000407322F00C02234343EA050E26F00403C0
:102A80001A43C0F804E0C0F818C049684163026204
:102A900070BD00BF70B5026A036A23F0100322F014
:102AA00020020362D0F804E0D0F818C08C680B68EC
:102AB00042EA04122CF4E64444EA032C374B9842D1
:102AC0000FD1CE68D1E905452EF4406322F0C00253
:102AD00043EA840343EA850E6FF04F0303EA0613CB
:102AE0001A43C0F804E0C0F818C049688163026264
:102AF00070BD00BF70B5026A036A23F4807322F4CC
:102B000000720362D0F804E0D0F81CC08C680B6837
:102B100042EA04222CF0730444EA030C1F4B98424F
:102B20000FD1CE68D1E905452EF4405322F440621E
:102B300043EA041340F2FF4443EA051E3302A34371
:102B40001A43C0F804E0C0F81CC04968C1630262BF
:102B500070BD00BFB0B5026A036A23F4805322F44B
:102B600000520362D0F804E0C5698B680C6842EA41
:102B7000033C0A4B25F4E64242EA0422984204D17F
:102B80004B692EF4804545EA831EC0F804E0C2611B
:102B900049680164C0F820C0B0BD00BF002C0140EE
:102BA000D0F820C0036A23F001030362836923F095
:102BB000F00343EA021282612CF00A02114301621F
:102BC0007047D0F820C0036A23F0100303628369C2
:102BD00023F4704343EA023282612CF0A00242EAFD
:102BE00001110162704780B5142000F0B7F880072A
:102BF00018BF80BD14200321BDE8804000F0EDB86F
:102C00001CB504460D20002100F07EF942F293002D
:102C100021460222234620800DF1060000900C2060
:102C200000F0E7F858B90020002101E051400130E0
:102C3000225C0428FAD10220914208BF002002B091
:102C400010BD70B50D46064605200421144600F05F
:102C500035F80A20802100F0C0F805E016F8011BC5
:102C6000092000F051F9013D002DF7D10120032189
:102C700000F04AF9FF25052000F070F8013D15F03D
:102C8000FF0F02D010F00400F5D0222000F066F80B
:102C90002070212000F062F8607070BDB0B504466D
:102CA0002620214600F076F8054618B92046FFF7A1
:102CB000A7FF054600F01DF82846B0BDB0B50C468C
:102CC000054600F04BF820EA04012846BDE8B04074
:102CD00000F01AB90022D3B2042B07D811F803C0B0
:102CE000C35C01326345F6D0022000E00020C0B290
:102CF00070471FB550200DF10A040221ADF80A00FB
:102D0000A21C2046FFF79DFF0DF10E002146042274
:102D1000234600900C2000F06CF81FBD10B500F0A9
:102D200058F80D4C2A208D21A0472B203E21A0478A
:102D30002D201E21A0472C200021A04726207021F5
:102D4000A04715204021A04711203D21A047BDE804
:102D50001040FFF748BF00BF092F0008B0B5774CFF
:102D600005464FF4805100222046FDF7F8FF45F05C
:102D700040004000C0B200F0E3F8002000F0E0F8AE
:102D8000054620464FF480510122FDF7E8FF284612
:102D9000B0BD00BFBCB50C4605460D20072100F0B4
:102DA000B3F80DF10600257021460122234600905C
:102DB0000C2000F01EF8BDF80610022210294FF07A
:102DC000020108BF0146002818BF1146084602B09C
:102DD000B0BD01200F2100F097B8B0B50C460546F4
:102DE000FFF7BCFF40EA04012846BDE8B04000F010
:102DF0008BB82DE9F84F9A4616460F4683460C28A5
:102E000006D0BBF10E0F07D111244FF0120906E0D6
:102E100031244FF0770902E001244FF0000949F016
:102E20008000DDF82880C1B2022000F06DF8042097
:102E30008021FFF743FF0A208021FFF7CEFF01200A
:102E40000021002500F060F804E0395C092000F062
:102E50005BF80135A8B2B042F7D30120594600F023
:102E600053F8BBF10C0F03D10D208021FFF7B5FF04
:102E70004FF4FA654FF6FF770420FFF76FFF013D2F
:102E800006463D4236D03442F6D00D208021FFF771
:102E900015FF0620FFF762FF10F01B0F2ED109EA85
:102EA0000600BBF10C0F00F0010428D10A20FFF747
:102EB00055FF05460C20FFF751FFE90010F0070011
:102EC0002E461EBFC0B208390143102DA8F80010CD
:102ED00028BF1026002D4FF0000508BF012605E091
:102EE0000920FFF73BFF0AF807000135AFB2BE42E9
:102EF000F6D804E00D208021FFF7E0FE0224E0B2C6
:102F000001B0BDE8F08F000070B50C4C0D460646D0
:102F10004FF4805100222046FDF721FF7E2000EA79
:102F2000460000F00DF8284600F00AF820464FF45D
:102F300080510122BDE87040FDF711BF000C014037
:102F40001CB50D4C8DF807002068816811F0020F48
:102F5000FBD00A200DF107010DF1060201230090BC
:102F60002046FEF74FFD2068816811F0800FFBD1ED
:102F70009DF8060002B010BDB002002010B5044656
:102F800000680169E26821F44051114341F20C628A
:102F90000161D4F808C0D4E904E3C16891434EEA62
:102FA0000C021A431143C1604169A26921F44071C6
:102FB000114341611149884202D0FEF78DFA01E0C8
:102FC000FEF794FA19214843D4E900126FF0630424
:102FD0009200B0FBF2F06422B0FBF2F303FB0400BA
:102FE000322404EB0010B0FBF2F000F0F00200F02D
:102FF0000F0002EB03121043886010BD003801403F
:103000002DE9F0411D4690460F4604465E1C20689F
:1030100000683840B84226D0002EF8D02DB1FDF718
:10302000A3FEA0EB0800A842F1D9206850E8030FE6
:10303000216820F4D07041E80302002AF5D120680D
:1030400050E8050F216820F0010041E80502002A40
:10305000F5D12020002184F8410084F8401084F844
:103060004200032000E00020C0B2BDE8F081FEE78E
:1030700010B5074C00F00F03044AB0F1FF3F2344A2
:10308000C8BF83180801187010BD00BF00E400E03D
:1030900014ED00E04FF0000C0022082A04BF604647
:1030A0007047835C0132A3F13001C9B209299CBF8A
:1030B00003EB0C11A1F1300CEFE70000B0B586B0C6
:1030C0000446FFF715FB0A201421FFF739FB2F4DAB
:1030D0002D4801222946FFF70FFC1E201E21FFF775
:1030E0002FFB2B4829460122FFF706FCFFF718FCAF
:1030F000002000F061F84FF6FF702146208001208B
:1031000000F03EF90546092820D0012D29D08DBBBD
:1031100024A0072128221E2301F0CCFA6420FDF709
:1031200077FC228801AC21A12046FDF757F8204604
:10313000FDF7E0F981B220461E221E2301F0BAFA03
:103140004FF47A70FDF764FC00251AE011A00B2102
:103150001E221E2301F0AEFA6420FDF759FC09255A
:103160000FE00F48142101F07FFA6420FDF750FCB6
:10317000012506E047480E2101F076FA6420FDF7AC
:1031800047FC284606B0B0BDE05C000854000020B3
:10319000205D00084E6F74206D617463682100002B
:1031A000FE5C00084D617463682100005573657210
:1031B0002049443A202564002DE9F84FDFF8308497
:1031C000DFF82894DFF818A4DFF8BCB02F4D304F9B
:1031D0002C4CFF262FE000F063FA0646032806D8A1
:1031E000DFE806F002070A1F48461A211BE04046A6
:1031F00018E05046142116E00A201421FFF7A0FA27
:10320000584629460122FFF777FB1E201E21FFF7B3
:1032100097FA384629460122FFF76EFBFFF780FB3D
:1032200003E020460E2101F01FFA6420FDF7F0FBB9
:103230003220FDF7EDFB3006CDD1012000F03CFD42
:103240000446072807D8DFE804F0040E0B0B0B0B2D
:103250001108EA480BE0152C02D1E648242107E0CA
:10326000E3480E2104E0DE48142101E0E248102189
:1032700001F0FAF96420FDF7CBFB204601B0BDE870
:10328000F08F00BFF05C0008E05C000854000020F4
:10329000205D0008125D000880B5FDF7BFF9B0FAA7
:1032A00080F0400980BD000010B5424C052001218E
:1032B0002070204601F098F920464FF4FA7100F092
:1032C00001FA607A10BD00BF10B504460548C06918
:1032D0006077204600F058FD04F11E00BDE8104064
:1032E00000F0FCBC0000002010B5F54C0521A070DA
:1032F0000C2020804FF48070A4F80300204601F0D9
:1033000073F920464FF4FA7100F0DCF9607A10BDD1
:1033100010B5EB4C0D2001212070204601F064F91E
:1033200020464FF4FA7100F0CDF9607A10BD00BF6D
:1033300010B5E34C1F2002212080204601F054F9F3
:1033400020464FF4FA7100F0BDF90A204FF0000C4E
:10335000292884BF4FF0FF3010BD002209E0215C16
:1033600011F0010F04BF0CEB020010BD49081A4612
:103370002154531C082BF2D994440130E8E700BFD4
:10338000B0B5CF4D0C4606216870042028704FF070
:103390008040C5F80200284601F026F928464FF47F
:1033A000FA7100F08FF9688900BA000C2080687A01
:1033B000B0BD00BFD00000202DE9F04F9FB0804687
:1033C00006AC854920464246FCF708FF2046FDF73B
:1033D00091F881B2204601F047F9DFF81492DFF846
:1033E0000CA2DFF8FCB17F4D7F4E7C4C4FF0FF37D5
:1033F00023E000F055F90746032806D8DFE807F078
:1034000002070A1650461A2112E048460FE05846B5
:1034100014210DE02846022101F026F93046294604
:1034200002224FF47A73FEF7F6FE03E020460E21E7
:1034300001F01AF93220FDF7EBFA002FD9D1012063
:1034400000F03AFC0546072800F26F80DFE805F03F
:10345000049B96969696757B6848102101F004F9B6
:1034600067A00E2101F000F94FF4FA60FDF7D0FAE1
:103470004FF0FF3001E000F013F90228FBD164A007
:10348000182101F0F1F8DFF86891554E554C534D75
:103490004FF0FF370FF2901A1AE000F001F90746DB
:1034A000032806D8DFE807F002070A0D50460C2172
:1034B00009E0484606E03046142104E02046022197
:1034C00001E028460E2101F0CFF83220FDF7A0FAE6
:1034D000002FE2D1022000F0EFFB0546072824D898
:1034E000DFE805F004514C4C4C4C2B314348102183
:1034F00001F0BAF806AC4FA142462046FCF76EFE3A
:103500002046FCF7F7FF81B2204601F0ADF8FFF747
:10351000CBFE0546E8B1012D35D00A2D2ED14BA0AA
:10352000112101F0A1F80A2532E0152D26D13148EC
:10353000242101F099F815252AE02F48102101F0E7
:1035400093F8062524E02B48242101F08DF8072567
:103550001EE043A0102101F087F8404601F024F856
:103560000546C8B1012D0ED00B2D2ED0182D05D13A
:103570003FA0172101F078F8182509E01C480E211A
:1035800001F072F804E01648142101F06DF80125ED
:1035900028461FB0BDE8F08F3CA0082101F064F878
:1035A00001AC3CA142462046FCF718FE2046FCF741
:1035B000A1FF81B220461E221E2301F07BF84FF4AA
:1035C0007A70FDF725FA0025E2E72F48212101F066
:1035D0004BF80B25DCE700BF705C0008F05C0008CE
:1035E000FE5C0008445C0008B0010020565C000846
:1035F000125D00082A5D00084E5D0008465C000868
:1036000052656D6F76652066696E676572000000B1
:10361000506C6163652073616D652066696E6765D6
:103620007220616761696E00496D61676520746130
:103630006B656E004372656174696E67206D6F64BF
:10364000656C20666F7220232564000046696E67F2
:103650006572206E6F74206D6174636800000000F5
:103660005072696E7473206D6174636865642100C3
:103670004572726F722077726974696E6720746F19
:1036800020666C6173680000BF5C000853746F7241
:1036900065642100596F75722049443A2025640001
:1036A00010B5074C012001212070204600F09CFF3E
:1036B00020464FF4FA7100F005F8607A10BD00BFA3
:1036C000D0000020B0B50C464021FF220546FCF793
:1036D00075FF0448294640222346BDE8B040FEF766
:1036E0003DBD00BFB001002080B5FFF701F8FEF737
:1036F00093FAFDF743FE00200121BDE88040FDF76D
:1037000043BE000070B58CB09C4E514CB068006850
:10371000F0612068F060FFF70BFEC0B2FFF74CFECF
:10372000F06902AD70612846FFF7CEFD7069D6E9F9
:10373000023225490130706100902046FDF744F9BE
:10374000284600F0F7FD0CB070BD00BF80B5FEF755
:10375000CFFF00F03DFEED48417809B10321017033
:1037600080BD00BFBCB5FEF7C3FF0A201221FEF7E3
:10377000E7FFD64C124801222146FFF7BDF8002092
:103780001E21FEF7DDFF0F4821460122FFF7B4F8A6
:10379000FFF7C6F8DD4D05F13804204600F0D2FAF7
:1037A0002046FFF777FCAB68024607491868E861D6
:1037B00000902748FDF708F9BDE8BC40FEF798BF28
:1037C000775D00085E5D000800000108F8B5142070
:1037D0000021FEF7B5FFBC48BC490122FFF78CF879
:1037E00000201421FEF7ACFF2748E8490122FFF72B
:1037F00083F8FFF795F84FF4FA70FDF709F9EC4DEF
:1038000005F118042046FFF759FCA968104A096819
:10381000E961002912686961EA6013D0A0B100264D
:10382000002706E0781C012F074602D1AE702E80DB
:103830000746012F88BFF8BD2046FFF73FFC002850
:10384000F0D101E0FFF75EFF06202870F8BD00BF51
:103850001AF8000810B500201421FEF771FF0A487D
:10386000CA490122FFF748F8FFF75AF86420FDF72C
:10387000CFF8CF4C04F11800FFF720FCB0FA80F02D
:1038800040094000207010BD6B5D00082DE9F04735
:103890001E201421FEF754FF374935A00122FFF7FF
:1038A0002BF8FFF73DF8FDF75FFADFF8D090384EC0
:1038B000044641F289370FF200180FF2141A09F189
:1038C0002505FDF751FA001BB8421CD3FEF710FF87
:1038D0000A201421FEF734FF404631460122FFF74B
:1038E0000BF80A201E21FEF72BFF5046314601221D
:1038F000FFF702F8FFF714F84FF47A70FDF788F835
:10390000FFF7F2FEDDE7D9F8140048B1FFF7C8FE73
:10391000022827D12846FFF7C1F90028D1D11FE09E
:10392000FEF7E6FE164D23200021A847184C194E3D
:1039300014A001222146B0470F201421A84716A049
:1039400021460122B04714201E21A84716A0214677
:103950000122B047FEF7E4FF4FF47A70FDF758F804
:10396000042000E0012089F80000BDE8F08700BFD6
:103970004C4F434B494E47004C00002000000020B4
:10398000412700084E6F20757365722121000000E9
:1039900054000020F9280008506C656173652061AF
:1039A0006464206E6577000066696E676572707288
:1039B000696E742121000000476F696E6720696E8F
:1039C000746F20534C454550204D4F444500000036
:1039D000696E2031207365636F6E647300000000B0
:1039E0002DE9F84FFEF784FE1E201E21FEF7A8FEEB
:1039F000324930A00122FEF77FFFFEF791FFC82079
:103A0000FDF706F82E48FEF7C5FDDFF8B8802F4E0B
:103A1000DFF8BC9004460FF2BC0A0FF2CC0B35A5C0
:103A200038A73CE014200021C04727483146012236
:103A3000C8470A201421C047504631460122C847D2
:103A40000A201E21C047584631460122C8470A2095
:103A50002821C047284631460122C8470A20322182
:103A6000C047384631460122C847FEF759FF14487F
:103A7000FEF790FD0446332808D0322C0BD0312CB1
:103A80000DD1FFF76FFEFEF733FE08E000F092F86D
:103A9000FEF72EFE03E0FFF735FEFEF729FEE0B24B
:103AA0002328BFD1FEF724FE7C4800210170BDE829
:103AB000F88F00BF4D454E55000000004C0000201F
:103AC0001001002041270008655D00085400002017
:103AD000F9280008312E4368616E676520706173B4
:103AE00073636F6465000000322E41646420757357
:103AF00065720000332E52656D6F766520757365B3
:103B000072000000232E4578697400000000002038
:103B100070B51E201421FEF713FE1C4919A00122C6
:103B2000FEF7EAFEFEF7FCFE194EFA2140F2E242F1
:103B3000306801E0816301319142FBD1154C802155
:103B40002046FDF707F900B170BDFDF70DF90546F8
:103B500020468021FDF7FEF878B9FDF705F9401BF6
:103B6000B0F5FA6FF4D9FEF7C3FD306840F2E241D8
:103B700001E081630139FB29FBD248480021017033
:103B800070BD00BF4F50454E494E47004C000020CD
:103B9000600100200008014080B5FEF7A9FD00F09B
:103BA000EFFA3E48817809B10521017080BD00BF60
:103BB000000000202DE9F04385B0FEF799FD0020BC
:103BC0001E210027FEF7BCFD334C30A00122214608
:103BD000FEF792FEFEF7A4FEB34D4B260DF10C0945
:103BE0000DF1080814E02846FEF7D4FC00280290E6
:103BF0000ED049F82700B0B21E21FEF7A1FD4046C5
:103C000021460122FEF778FEFEF78AFE01370736CD
:103C1000022FE8D3214D224CA868DDE90367006834
:103C2000E861216868614FF47A70E960FCF7F0FEA2
:103C300006EB8600696907EB4000A0F50470884236
:103C400011DDFEF755FD14201E21FEF779FD124906
:103C500015A00122FEF750FEFEF762FE4FF47A70C7
:103C6000FCF7D6FE0EE02871C0B2FFF73DFB48B965
:103C70006869D5E902320B49013868610090204635
:103C8000FCF7A2FE05B0BDE8F08300BF52656D6F82
:103C900076652049443A20005400002000000020AE
:103CA0001AF80008000001084944206E6F7420666D
:103CB0006F756E642100000010B5074C0221607022
:103CC00002202070204600F08FFC20464FF4FA714D
:103CD000FFF7F8FC607A10BDD00000202DE9F84312
:103CE0000446FEF705FD00201E210027FEF728FDF3
:103CF000DFF8189A11A001224946FEF7FDFDFEF7F4
:103D00000FFE694E2825E846082F28BFBDE8F88336
:103D10003046FEF73FFC00280090F5D0E055A8B2F1
:103D20001E21FEF70DFD404649460122FEF7E4FD47
:103D3000FEF7F6FD01370735E6E700BF4D4E563A70
:103D4000200000002DE9F843574DDFF8C0990446E4
:103D500000264127E846062E28BFBDE8F8832846FE
:103D6000FEF718FC00280090F5D0A055B8B21E212F
:103D7000FEF7E6FC404649460122FEF7BDFDFEF790
:103D8000CFFD01360737E6E72DE9F04F89B004464D
:103D9000FEF7AEFCE9461D214846FCF717FC002063
:103DA0001E210025FEF7CCFCDFF860A93BA0012214
:103DB0005146FEF7A1FDFEF7B3FDE74F28260DF1B2
:103DC00020084FF0200B51E03846FEF7E3FB0028B7
:103DD0004CD0A0F12301162938D8DFE801F00C37C8
:103DE00037373737373737373737370E1115191D0C
:103DF0002125292D31001D2528E0CDF820B025E012
:103E00004121422243231EE04421452246231AE059
:103E100047214822492316E04A214B224C2312E035
:103E20004D214E224F230EE05021512252230AE011
:103E300053215422552306E056215722582302E0ED
:103E400059215A22002300F045FA089008981E21B3
:103E500009F80500B0B2FEF773FC40465146012256
:103E6000FEF74AFDFEF75CFD013507361D2DFFF616
:103E7000ABAF6D4620462946FCF718FBFEF738FC31
:103E80000A203221FEF75CFC064928460122FEF793
:103E900033FDFEF745FD09B0BDE8F08F4E616D655D
:103EA0003A00000054000020100100202DE9F04FDE
:103EB0009BB0F6480027877007610780FDF7DCF9A3
:103EC000A44920204FF0010A4FF0020910230B9063
:103ED000402001F5504501F55444A0490A95CDE92B
:103EE00008509D482A46CDE90059CDE9025ACDE94E
:103EF0000449CDE9064AFEF7FBFAFEF736FD98487D
:103F000000221326016841F020010160016801F0E0
:103F100020010D910D99016841F0040101600168D3
:103F200001F004010D910D99016841F00801016053
:103F30001321006800F008000D900D982846FCF74A
:103F40000EFF20464FF4805100224FF4805BFCF7B7
:103F500006FFCDE90D6A0DAEDFF808822846CDE9EF
:103F60000F793146C047E0200E9731460D90284624
:103F7000CDF83CA0C04703200E9731460D90204657
:103F8000CDF83CA0C04731462046724ECDE90DBA6F
:103F9000CDE90F79C0477448744906F5E0524FF4F3
:103FA00080430762C0E90021C0E90277C0E9043715
:103FB000C0E90677FCF7DEFE18B1EFF3108072B6A9
:103FC000FEE76B48B14D4FF4614106F580330C229A
:103FD000C0E90031C0E90277C0E90472C0E90677A0
:103FE000FEF726F818B1EFF3108072B6FEE76148CD
:103FF0004FF4827100244FF40072C0E900610A217D
:10400000C0E90244C0E90444C0E90624C0E9084408
:10401000C0E90A41FDF75EFC18B1EFF3108072B6FB
:10402000FEE70DA81C21CDE91944CDE91744CDE9DF
:104030001444FCF7CBFA50480F214FF0804242F273
:104040000F73C0E90021C0E9024304618461FDF7F8
:104050001BFE18B1EFF3108072B6FEE74FF48050EC
:1040600017A917904448FDF771FE18B1EFF31080BF
:1040700072B6FEE74048FDF760FF18B1EFF310801D
:1040800072B6FEE73C48002414A9CDE91444FDF7BC
:10409000CBFD18B1EFF3108072B6FEE760200E94EE
:1040A0000DA904220D9034480F941194FDF7F8FEE9
:1040B00018B1EFF3108072B6FEE72F48FDF7C2FE8D
:1040C0002E484FF4E13106F5406200230C27C0E989
:1040D0000021C0E90233C0E90437C0E90633FDF727
:1040E000A7FF18B1EFF3108072B6FEE7FEF716FED9
:1040F000FEF72AFB204C2046FDF706FE2046042151
:10410000FDF748FF00F006FAA8685F490068E8611B
:1041100009686861E96028780628FCD8DFE800F0C3
:1041200004070A0D10131600FFF7B0FBF3E7FFF7C3
:1041300091FBF0E7FFF7ECFCEDE7FFF72DFDEAE779
:10414000FFF704FBE7E7FFF741FBE4E7FFF748FC75
:10415000E1E700BF0038004010010020385C000893
:1041600018100240B50B000850020020801A06000B
:10417000B0010020B00200206001002000020020F9
:104180002DE9F04F9BB04048404C0DF10101006813
:10419000E06000F01FFADFF8F88014200021C0472B
:1041A0003D4D3C48DFF8F49001222946C8470A20DB
:1041B0001221C0473A4829460122C84700201E2143
:1041C000C047384829460122C847FEF7A9FB04F139
:1041D00031060FF2E00A02AF0FF2E40B2AE0206989
:1041E000411C0328216145DA14203221C0472EA04A
:1041F00029460122C847FEF793FB4FF4FA70FCF7FB
:1042000007FCFEF775FA00201E21C04750462946DC
:104210000122C84700202821C04722693846594654
:10422000FBF7DCFF384629460122C847FEF778FB3A
:104230000020A0703046FFF785FD30460DF10101EA
:10424000FFF72AF80028CAD028203221FEF778FA92
:1042500011491EA001220125FEF74EFBFEF760FB6F
:104260004FF4FA706580FCF7D3FBFEF741FA0020AB
:10427000206105E000202061A4F80100FEF738FA73
:104280001BB0BDE8F08F00BF1AF800080000002046
:1042900041270008655D000854000020F928000847
:1042A000775D00085E5D00084E4F5420434F525228
:1042B0004543540052652D696E7075743A000000D4
:1042C000417474656D70743A2025640050415353F5
:1042D000454400002DE9F047154D9A469146884621
:1042E00004460127FCF740FD0646FCF73DFD801B18
:1042F00080084A280BD82846FEF74CF90028F4D04D
:10430000A042F2D10A20FCF783FB0137EAE727F04D
:104310000040042805D0032805D0022808BF4446E1
:1043200002E0544600E04C462046BDE8F08700BF5E
:10433000100100202DE9F04385B00446FEF7D8F9BE
:10434000DFF860800A200021C0476D46627FDFF8F9
:10435000609015A12846C847164E174F28460122DF
:104360003146B8470A201E21C04714A128462246DC
:10437000C847284631460122B8470A203221C047A3
:1043800004F11E0210A12846C847284631460122E2
:10439000B847FEF7C5FA40F6B830FCF739FB05B070
:1043A000BDE8F0834127000849443A202564000015
:1043B000DD01000854000020F92800084E616D65F9
:1043C0003A202573000000004D4E563A2025730018
:1043D0002DE9F04F89B0DFF8E4A03A4FDFF8E0B004
:1043E0000DF113050FF2E0090AF125040FE045492C
:1043F00041A00122FEF780FAFEF792FA4FF4FA701C
:10440000FCF706FB00208AF80100FEF771F9204650
:10441000FEF744FCA0B114200021FEF791F95846A4
:1044200039460122FEF768FA0A203221FEF788F9A0
:10443000484639460122FEF75FFAFEF771FAE6E7D1
:10444000FEF756F9D04618F8252F98F8020098F88C
:10445000031098F8046098F801308DE8430028466E
:104460001EA1FBF7BBFE0A203221FEF769F92846A0
:1044700039460122FEF740FAFEF752FAA8F105018B
:104480004046FEF727FC06460F201921FEF758F993
:10449000002EACD11B491CA001220124FEF72CFAEE
:1044A000FEF73EFA4FF4FA70FCF7B2FAFEF720F985
:1044B0008AF8014009B0BDE8F08F00BF000000207D
:1044C000655D00085400002054617020796F75729A
:1044D00020494420636172642100000049443A206D
:1044E0003078253032582530325825303258253032
:1044F00032582530325800004E4F5420504153530B
:10450000454400004C00002049442050415353458D
:1045100044000000BCB50A4C2068013018BFBCBD87
:10452000FEF7F6FE074D05F12A00FEF7B3FD024641
:104530000020AB68044900902046FCF745FABCBD5A
:104540001AF800080000002000000108E0B503464A
:104550000A208DF807208DF806100DF10602009054
:10456000104819460223FCF77DFD8CBD10B5C2B082
:10457000844600200DF1080E8DF8081003E0545C0D
:10458000714401304C70C1B29942F8D30A2002AA9A
:1045900061460090581C83B20248FCF763FD42B0AC
:1045A00010BD00BF5002002010B5094C4FF48371BC
:1045B0002180E070000A0421A070204600F014F869
:1045C00020464FF4FA71FFF77DF8607A10BD00BF06
:1045D000D000002002A3024608461946FBF7FEBDA4
:1045E00025303658000000002DE9F041DFF85880F2
:1045F0000546EF200C46C0470120C047FF20C047BA
:10460000FF20C047FF20C047FF20C0470120C04710
:10461000A71C380AC047FEB23046C04706EB172039
:10462000461C06E0287800F011F815F8010B013C53
:104630000644002CF6D1C6F3072000F007F8F0B2CC
:10464000BDE8F04100F002B84D460008E0B58DF835
:10465000070004480DF1070101224FF47A73FDF7BA
:10466000DAFD8CBDB00100202DE9F04103AF044616
:1046700001F10800244900EA0105FEF739F8ADEB25
:104680000505AD462046FBF735FF421C284621466E
:10469000FBF74FFF00200021FEF752F81B49284688
:1046A0000122FEF729F9FEF73BF9A7F10C04A54614
:1046B000BDE8F0812DE9F04703AF064601F108009F
:1046C00011499846154600EA0104FEF711F8ADEBD2
:1046D0000404A5463046FBF70DFF421C2046314638
:1046E000FBF727FFA8B21FFA88F1FEF729F8074960
:1046F00020460122FEF700F9FEF712F9A7F10C049B
:10470000A546BDE8F08700BFF8FF01005400002077
:1047100030380A2801D2012070470020704730311C
:1047200032333435363738394142434445464030D8
:10473000580030313233343536373839616263648A
:1047400065664030780004000008000000000000AA
:104750000002000100001000000000000000000145
:104760000203040607080900000000010203040018
:104770000000000000000000000000000000000039
:104780000000000000000000000000000000000029
:10479000000000000000000C000C000C000C000CDD
:1047A000000C000C000C000C000C000C0000000CB5
:1047B000000C0000000000000000001B001B001B9C
:1047C000001B001B000000000000000000000000B3
:1047D0000000000000000000000000000000801940
:1047E000801980198019C07FC07F80190033C07F75
:1047F000C07F0033003300330033000000000000AE
:104800000000001E003F807580650074003C001EA3
:1048100000078005806580658075003F001E0004EC
:10482000000400000000007000D840D8C0D880D933
:1048300000730006000C801BC036C066C046C00670
:1048400080030000000000000000001E003F003355
:1048500000330033001E000CC03CC06680638061E2
:104860008063C03E801C0000000000000000000CBF
:10487000000C000C000C000C000000000000000008
:104880000000000000000000000000000000000028
:10489000800000010003000600060004000C000C6C
:1048A000000C000C000C000C0004000600060003C5
:1048B00000018000002000100018000C000C000413
:1048C0000006000600060006000600060004000CB4
:1048D000000C0018001000200000000C002D003F0C
:1048E000001E003300000000000000000000000077
:1048F00000000000000000000000000000000000B8
:104900000000000C000C000C000CC0FFC0FF000CED
:10491000000C000C000C0000000000000000000073
:104920000000000000000000000000000000000087
:1049300000000000000000000000000C000C00045B
:10494000000400080000000000000000000000005B
:10495000000000000000001E001E0000000000001B
:104960000000000000000000000000000000000047
:104970000000000000000000000000000000000037
:104980000000000C000C000000000000000000030C
:10499000000300030006000600060006000C000CE1
:1049A000000C000C001800180018000000000000A7
:1049B0000000001E003F0033806180618061806DD7
:1049C000806D8061806180610033003F001E0000C7
:1049D0000000000000000006000E001E0036002649
:1049E0000006000600060006000600060006000697
:1049F00000060000000000000000001E003F807361
:104A000080618061800100030006000C0018003006
:104A10000060807F807F0000000000000000001C1C
:104A2000003E006300630003000E000E00038001DF
:104A3000800180618073003F001E000000000000C4
:104A400000000006000E000E001E001E00160036BC
:104A500000360066807F807F0006000600060000AA
:104A6000000000000000007F007F00600060006028
:104A7000006E007F80638001800180618073003F51
:104A8000001E0000000000000000001E003F8033F8
:104A900080610060006E007F807380618061806152
:104AA0008033003F001E0000000000000000807FF7
:104AB000807F80010003000300060006000C000C4C
:104AC000000C00080018001800180000000000008A
:104AD0000000001E003F8063806180610021001E95
:104AE000003F8061806180618061003F001E0000A6
:104AF000000000000000001E003F00738061806124
:104B000080618073803F801D800180610073003F61
:104B1000001E000000000000000000000000000077
:104B20000000000C000C000000000000000000006D
:104B30000000000C000C000000000000000000005D
:104B40000000000000000000000C000C000000004D
:104B5000000000000000000C000C0004000400082D
:104B6000000000000000000080008003000E0038FC
:104B700000600038000E800380000000000000008C
:104B80000000000000000000000000000000807F26
:104B9000807F00000000807F807F00000000000018
:104BA0000000000000000000000000000000000005
:104BB00000400070001C000780010007001C00700E
:104BC0000040000000000000000000000000001F86
:104BD000803FC071C060C000C00180030007000EAC
:104BE000000C000C0000000C000C00000000000095
:104BF0000000001E003F803180718063806F806DF7
:104C0000806D806F806700600032003E001C0000F5
:104C1000000000000000000E000E001B001B001B27
:104C2000001B80318031803F803F8031C060C06098
:104C3000C0600000000000000000007C007E0063F7
:104C4000006300630063007E007E0063806180611A
:104C50008063007F007E0000000000000000001E56
:104C6000003F803180610060006000600060006093
:104C7000006080618031003F001E000000000000E5
:104C80000000007C007F0063806380618061806140
:104C900080618061806100630063007E007C0000B1
:104CA000000000000000807F807F006000600060E6
:104CB0000060007F007F0060006000600060807F17
:104CC000807F0000000000000000807F807F006087
:104CD000006000600060007F007F00600060006096
:104CE0000060006000600000000000000000001E86
:104CF000003F8031806100600060006080638063FD
:104D0000806180618031803F001E00000000000053
:104D10000000806180618061806180618061807F4E
:104D2000807F80618061806180618061806100003E
:104D3000000000000000003F003F000C000C000CD1
:104D4000000C000C000C000C000C000C000C003FD0
:104D5000003F000000000000000080018001800191
:104D6000800180018001800180018001806180617B
:104D70008073003F001E0000000000000000C060C3
:104D80008061006300660066006C0078007C00664D
:104D90000066006380618061C06000000000000068
:104DA0000000006000600060006000600060006063
:104DB00000600060006000600060807F807F000015
:104DC000000000000000C071C071C07BC07AC06AE2
:104DD000C06AC06EC064C060C060C060C060C060B7
:104DE000C0600000000000000000807180718079C8
:104DF00080798079806D806D806D80658067806747
:104E00008067806380630000000000000000001ED7
:104E1000003F0033806180618061806180618061DA
:104E2000806180610033003F001E00000000000030
:104E30000000007E007F806380618061806180630C
:104E4000007F007E00600060006000600060000085
:104E5000000000000000001E003F00338061806100
:104E60008061806180618061806580670033803F00
:104E7000401E0000000000000000007E007F8063F4
:104E8000806180618063007F007E00660063006354
:104E900080618061C0600000000000000000000E22
:104EA000001F8031803100300038001E0007800371
:104EB000806180618031003F001E00000000000022
:104EC0000000C0FFC0FF000C000C000C000C000C28
:104ED000000C000C000C000C000C000C000C00007E
:104EE000000000000000806180618061806180615D
:104EF0008061806180618061806180618073003F3A
:104F0000001E0000000000000000C060C060C06023
:104F1000803180318031001B001B001B001B000E04
:104F2000000E000E00040000000000000000C0C0E1
:104F3000C0C0C0C0C0C0C0C0C0CC804C804C805E6F
:104F40008052805280738061806100000000000008
:104F50000000C0C0806080610033003B001E000C78
:104F6000000C001E001F003B80718061C0C000006B
:104F7000000000000000C0C0806180610033003389
:104F8000001E001E000C000C000C000C000C000C9D
:104F9000000C0000000000000000803F803F800106
:104FA000000300030006000C000C0018001800307D
:104FB0000060807F807F000000000000000F000F75
:104FC000000C000C000C000C000C000C000C000C81
:104FD000000C000C000C000C000C000C000F000F6B
:104FE0000000001800180018000C000C000C000C49
:104FF0000006000600060006000300030003000090
:1050000000000000001E001E00060006000600064C
:105010000006000600060006000600060006000660
:1050200000060006001E001E0000000C000C001E02
:105030000012003300338061806100000000000036
:105040000000000000000000000000000000000060
:105050000000000000000000000000000000000050
:10506000000000000000000000000000E0FF000061
:10507000000000380018000C0000000000000000D4
:105080000000000000000000000000000000000020
:105090000000000000000000000000000000001FF1
:1050A000803F80618001801F803F80618063807FBE
:1050B000C0380000000000000000006000600060D8
:1050C0000060006E007F807380618061806180611C
:1050D0008073007F006E00000000000000000000F0
:1050E000000000000000001E003F8073806100602F
:1050F000006080618073003F001E0000000000001F
:1051000000008001800180018001801D803F80734C
:1051100080618061806180618073803F801D0000BC
:105120000000000000000000000000000000001E61
:10513000003F00738061807F807F00608071003F4E
:10514000001E0000000000000000C007C00F000C9F
:10515000000C807F807F000C000C000C000C000C09
:10516000000C000C000C000000000000000000001B
:1051700000000000801D803F80738061806180613D
:1051800080618073803F801D80018063007F003ECE
:1051900000000060006000600060006F807F807130
:1051A00080618061806180618061806180610000D8
:1051B0000000000000000006000600000000003EA5
:1051C000003E000600060006000600060006000677
:1051D00000060000000000000006000600000000BD
:1051E000003E003E0006000600060006000600061F
:1051F0000006000600060046007E003C000000603D
:10520000006000600060806100630066006C007CEC
:105210000076006300638061C06000000000000051
:105220000000003E003E00060006000600060006E4
:105230000006000600060006000600060006000044
:10524000000000000000000000000000000080DD01
:10525000C0FFC0CEC0CCC0CCC0CCC0CCC0CCC0CCB9
:10526000C0CC0000000000000000000000000000B2
:105270000000006F807F807180618061806180614B
:10528000806180618061000000000000000000007B
:10529000000000000000001E003F807380618061FC
:1052A000806180618073003F001E000000000000EC
:1052B0000000000000000000006E007F807380612D
:1052C0008061806180618073007F006E006000609B
:1052D000006000600000000000000000801D803FB2
:1052E000807380618061806180618073803F801DF8
:1052F00080018001800180010000000000000000AA
:1053000000000067803F003900300030003000307E
:1053100000300030003000000000000000000000FD
:10532000000000000000001E803F80610060007FE0
:10533000803F80018061007F001E000000000000AF
:1053400000000000000800180018007F007F00180F
:1053500000180018001800180018801F800F0000A7
:10536000000000000000000000000000000080615C
:105370008061806180618061806180618063807F05
:10538000803D000000000000000000000000000060
:105390000000C060803180318031001B001B001B89
:1053A000000E000E000600000000000000000000DB
:1053B00000000000000080DD80DD80DD005500552C
:1053C0000055007700770022002200000000000056
:1053D0000000000000000000000080610033003386
:1053E000001E000C000C001E003300338061000022
:1053F00000000000000000000000000080618061EB
:10540000803100330033001B001B001B000E000E18
:10541000000E001C007C0070000000000000000076
:105420000000C07FC07F800100030006000C001850
:105430000030C07FC07F00000000000080038007B4
:1054400000060006000600060006000E001C001CF8
:10545000000E000600060006000600068007800316
:10546000000600060006000600060006000600060C
:1054700000060006000600060006000600060006FC
:10548000000600060038003C000C000C000C000C6C
:10549000000C000E00070007000E000C000C000CB2
:1054A000000C000C003C0038000000000000000070
:1054B0000000000000008038807F004700000000EE
:1054C00000000000000000000000000000000000DC
:1054D00000000000000000000000000000000000CC
:1054E000001000100010001000100010000000104C
:1054F0000000000000280028002800000000000034
:10550000000000000000000000240024007C0024B3
:105510000048007C004800480000000000380054AB
:1055200000500038001400540054003800100000EF
:1055300000200054005800300028005400140008D7
:10554000000000000010002800280010003400486F
:10555000004800340000000000100010001000009F
:105560000000000000000000000000000008001023
:105570000020002000200020002000200010000853
:1055800000200010000800080008000800080008BB
:10559000001000200010003800100028000000005B
:1055A00000000000000000000000000000100010DB
:1055B000007C00100010000000000000000000004F
:1055C00000000000000000000000001000100010AB
:1055D0000000000000000000000000380000000093
:1055E00000000000000000000000000000000000BB
:1055F000000000100000000000080008001000106B
:1056000000100010002000200000000000380044BE
:1056100000440054004400440044003800000000EE
:10562000001000300050001000100010001000109A
:10563000000000000038004400440004000800108E
:105640000020007C00000000003800440004001826
:1056500000040004004400380000000000080018A6
:10566000002800280048007C000800080000000016
:10567000007C004000400078000400040044003832
:10568000000000000038004400400078004400445E
:105690000044003800000000007C000400080010F6
:1056A000001000200020002000000000003800440E
:1056B000004400380044004400440038000000006A
:1056C0000038004400440044003C0004004400381A
:1056D00000000000000000000010000000000000BA
:1056E000000000100000000000000000000000109A
:1056F000000000000000001000100010000000007A
:10570000000C003000400030000C000000000000E1
:10571000000000000000007C0000007C0000000091
:1057200000000000000000000060001800040018E5
:105730000060000000000000003800440004000881
:1057400000100010000000100000000000380044AD
:10575000004C0054005C0040004000380000000095
:1057600000100028002800280028007C0044004485
:105770000000000000780044004400780044004429
:105780000044007800000000003800440040004061
:105790000040004000440038000000000070004855
:1057A0000044004400440044004800700000000031
:1057B000007C00400040007C004000400040007C35
:1057C00000000000007C00400040007800400040E5
:1057D000004000400000000000380044004000404D
:1057E000005C004400440038000000000044004415
:1057F0000044007C004400440044004400000000D9
:1058000000380010001000100010001000100038C8
:105810000000000000040004000400040004000470
:1058200000440038000000000044004800500060C0
:1058300000500048004800440000000000400040C4
:1058400000400040004000400040007C000000009C
:105850000044006C006C00540044004400440044C8
:105860000000000000440064006400540054004C38
:10587000004C004400000000003800440044004494
:105880000044004400440038000000000078004458
:105890000044004400780040004000400000000048
:1058A00000380044004400440044004400540038E0
:1058B00000040000007800440044004400780048E0
:1058C0000048004400000000003800440040003060
:1058D000000800040044003800000000007C0010B4
:1058E0000010001000100010001000100000000058
:1058F0000044004400440044004400440044003894
:105900000000000000440044004400280028002853
:105910000010001000000000004400440054005437
:105920000054006C002800280000000000440028FB
:10593000002800100010002800280044000000008B
:10594000004400440028002800100010001000103F
:1059500000000000007C000400080010001000207F
:105960000040007C00000000001800100010001033
:10597000001000100010001000100018002000207F
:1059800000100010001000100008000800000000C7
:105990000030001000100010001000100010001067
:1059A0000010003000100028002800440000000013
:1059B00000000000000000000000000000000000E7
:1059C0000000000000000000000000FE00200010A9
:1059D00000000000000000000000000000000000C7
:1059E0000000000000380044003C0044004C00343B
:1059F00000000000004000400058006400440044E3
:105A0000006400580000000000000000003800445E
:105A10000040004000440038000000000004000482
:105A20000034004C00440044004C003400000000EE
:105A30000000000000380044007C004000440038B2
:105A400000000000000C0010007C0010001000108E
:105A50000010001000000000000000000034004CA6
:105A600000440044004C0034000400780040004032
:105A7000005800640044004400440044000000005A
:105A80000010000000700010001000100010001046
:105A90000000000000100000007000100010001056
:105AA00000100010001000E00040004000480050CE
:105AB000006000500048004400000000007000102A
:105AC0000010001000100010001000100000000076
:105AD00000000000007800540054005400540054AA
