:020000040800F2
:10000000E80D0020A5010008EB2D0008912A00084A
:10001000E92D00089D0A00081D3A000800000000B4
:100020000000000000000000000000007531000822
:100030009F0A000800000000ED2D0008993100081B
:10004000BF010008BF010008BF010008BF01000890
:10005000BF010008BF010008A10A0008BF01000895
:10006000BF010008BF010008BF010008BF01000870
:10007000BF010008BF010008BF010008BF01000860
:10008000BF010008BF010008BF010008BF01000850
:10009000BF010008BF010008BF010008BF01000840
:1000A000BF010008BF010008BF010008BF01000830
:1000B000BF010008BF010008BF010008BF01000820
:1000C000BF010008BF010008BF010008BF01000810
:1000D000BF010008F9390008053A0008113A000884
:1000E000BF010008BF010008BF01000800F002F8CE
:1000F00000F048F80AA090E8000C82448344AAF17A
:100100000107DA4501D100F03DF8AFF2090EBAE877
:100110000F0013F0010F18BFFB1A43F0010318473B
:100120002C6A00004C6A0000103A24BF78C878C1DD
:10013000FAD8520724BF30C830C144BF04680C60ED
:10014000704700000023002400250026103A28BF35
:1001500078C1FBD8520728BF30C148BF0B60704739
:10016000642900F0A380782900F0DC80632900F086
:100170001C83732900F02183002070471FB51FBD29
:1001800010B510BD00F071FB1146FFF7F7FF04F04A
:1001900017FD00F08FFB03B4FFF7F2FF03BC00F084
:1001A00097FB00000948804709480047FEE7FEE743
:1001B000FEE7FEE7FEE7FEE7FEE7FEE7FEE7FEE717
:1001C00004480549054A064B70470000F531000810
:1001D000ED000008E8070020E80D0020E8090020F5
:1001E000E80900200FB41CB5074B06AA7B446946FA
:1001F0000090059800F0B7FA0020694600F0C6FAB2
:100200001CBC5DF814FB00009D05000070B50446A1
:1002100085690068C10601D5302600E02026C007A8
:1002200007D070BDD4E9012130469047206A401CB8
:1002300020626D1EF6D570BD70B5044685690078E4
:10024000C00707D170BDD4E9012120209047206A62
:10025000401C20626D1EF6D570BD70B50C4605467B
:10026000012A05D02878800600D5EA69002302E03B
:10027000012305E05B1C934202D2E05C0028F9D127
:10028000A869E618C01AA861286A18442862284696
:10029000FFF7BCFF04E0D5E9012114F8010B9047FA
:1002A000B442F8D32846FFF7C7FF70BD2DE9F041EF
:1002B0000646002410687529314616A510D0AFF304
:1002C0000080002802DA404213A507E031688A075F
:1002D00001D512A502E0490704D511A5012401E0CA
:1002E000AFF3008000210A2206F1240709E0B0FBE9
:1002F000F2FCB0FBF2F302FB1C00303078541846DD
:10030000491C0028F3D123462A463046BDE8F04177
:1003100000F0CBB9000000002D0000002B00000011
:100320002000000070B504460D4621461068AFF36A
:1003300000802188090502D50F4A7A4402E00E4A5E
:100340007A440E32002104F1240305E000F00F0688
:100350000009965D5E54491C0028F7D120780023DF
:10036000000704D5702D02D009B1022311322046B6
:10037000BDE8704000F099B9F85100002DE9F05F38
:10038000894604464FF0000ADFF824B1FB44C0F868
:1003900020A02046E168884700287DD0252806D087
:1003A000D4E901219047206A401C2062F1E7002532
:1003B0005F462046E16888472028064607DB312E45
:1003C00005D2B81910F8200C08B10543F1E7A807C9
:1003D00001D525F00405C4F81CA00027C4F818A016
:1003E0002A2E09D0304605F09FF838B304EB870871
:1003F000303EC8F8186019E059F8041B204604EB99
:1004000087029161E1688847012F064618D1E069AB
:10041000002820DA25F020051DE0D8F8180000EBB0
:10042000800006EB40003038C8F818002046E1682C
:100430008847064605F078F80028EED1012F0AD04B
:100440002E2E08D12046E16888477F1C0646022FE1
:1004500045F02005C4DBA069002803DA404245F0DE
:100460000105A061E80701D025F01005A6B1A6F1AD
:100470004100192802D8203645F400654A46314625
:10048000204625604D46FFF76BFE60B1012807D07E
:10049000ED1D25F0070000E007E000F1080978E70E
:1004A00005F1040975E730467AE7206ABDE8F09F58
:1004B000CE51000040EA0103024630B59B0710D13F
:1004C0004FF0013400E008C208C91D1B9D4315EA26
:1004D000C41FF8D013F0FF0102F8011B0DD01B0A56
:1004E000F8E711F8013B002B02F8013B05D011F8A9
:1004F000013B002B02F8013BF3D130BD10B5431C8A
:1005000002E010F8011B71B18107FAD14FF00132FE
:1005100002C88C1A8C4314EAC211F9D0C01A0A0618
:1005200003D0C01E10BDC01A10BD0A0401D0801E29
:1005300010BD0902FCD0401E10BD032A40F23080DD
:1005400010F0030C00F0158011F8013BBCF1020F14
:10055000624498BF11F801CB00F8013B38BF11F895
:10056000013BA2F1040298BF00F801CB38BF00F8AC
:10057000013B11F0030300F02481083AC0F0088029
:1005800051F8043B083A51F804CBA0E80810F5E70D
:10059000121D5CBF51F8043B40F8043BAFF30080F0
:1005A000D20724BF11F8013B11F801CB48BF11F865
:1005B000012B24BF00F8013B00F801CB48BF00F835
:1005C000012B704702F0FF0343EA032242EA024292
:1005D00000F02BB94FF0000200B513469446964642
:1005E000203922BFA0E80C50A0E80C50B1F1200146
:1005F000BFF4F7AF090728BFA0E80C5048BF0CC0F4
:100600005DF804EB890028BF40F8042B08BF704751
:1006100048BF20F8022B11F0804F18BF00F8012BC3
:10062000704700004FF0013C50F8042B51F8043B98
:100630009A4221D1A2EB0C03934313EACC1317D1B6
:1006400050F8042B51F8043B9A4215D1A2EB0C034D
:10065000934313EACC130BD150F8042B51F8043B0D
:100660009A4209D1A2EB0C03934313EACC13DBD0DB
:100670004FF00000704700BFD01A01BAB1FA81F103
:1006800001F0180122FA01F0CB40DBB2C0B2C01A6F
:10069000C1F120012CFA01F3D11A914311EAC311DF
:1006A000E6D170477047704770472DE9F0470D4617
:1006B00099469246044600F124080168880604D54C
:1006C000E06921F01001216000E00120A84201DD75
:1006D000471B00E00027A1697A1902EB0900081AFC
:1006E000A0612078C00602D42046FFF78FFD0026C7
:1006F00008E0D4E901211AF806009047206A401C5E
:10070000761C20624E45F4DB2078C0060AD52046D0
:10071000FFF77CFD06E0D4E9012130209047206AF4
:10072000401C2062381EA7F10107F4DC07E0D4E981
:10073000012118F805009047206A401C2062281EFD
:10074000A5F10105F3DC2046FFF776FD20780006D1
:1007500002D50220BDE8F0870120FBE701694A1CB1
:1007600002610878704700B58FB0CDE901310021F2
:10077000059105497944CDE9031011466846FFF714
:10078000FDFD0FB000BD0000E5FFFFFF0A6802F8A5
:10079000010B0A60704710B5436913B1AFF30080D5
:1007A00001E0FFF75AFD012010BD127800F124018D
:1007B0000A7000224A700122EDE711684FF0FF3203
:1007C000E9E710B5203AC0F00B80B1E81850A0E876
:1007D0001850B1E81850A0E81850203ABFF4F5AF0F
:1007E0005FEA027C24BFB1E81850A0E8185044BF6B
:1007F00018C918C0BDE810405FEA827C24BF51F8D8
:10080000043B40F8043B08BF7047D20728BF31F8CB
:10081000023B48BF11F8012B28BF20F8023B48BF1C
:1008200000F8012B70474FF000020429C0F012803D
:1008300010F0030C3FF4D0AECCF1040CBCF1020F6D
:1008400018BF00F8012BA8BF20F8022BA1EB0C0168
:10085000FFF7C2BE5FEAC17C24BF00F8012B00F89D
:10086000012B48BF00F8012B7047754600F02CF8AB
:10087000AE4605006946534620F00700854618B08D
:1008800020B5FFF79DFCBDE820404FF000064FF07B
:1008900000074FF000084FF0000BAC46ACE8C00971
:1008A000ACE8C009ACE8C009ACE8C00921F0070118
:1008B0008D46704710B50446AFF300802046BDE872
:1008C0001040FFF768BC000000487047700000202F
:1008D00001491820ABBEFEE7260002007047000069
:1008E0002DE9F043BDB00C460DF127084C490546F3
:1008F0004046FFF777FC4046FFF700FE81460027A1
:100900004046494603E010F8012B013917440029FD
:10091000F9D12046FFF7F2FD0646002002E0215CF7
:1009200001300F448642FAD12846FFF7E7FD002147
:1009300002E06A5C013117448842FAD106EB0901F2
:10094000032201440DF11D0010E0CB1701EB1376DB
:1009500026F00F03CB1A3111002B06DB0A2B4FF0C8
:100960003706B8BF302633448354013AB2F1FF3F13
:10097000EBDC012206A910E0FB1707EB137626F04B
:100980000F03FB1A3711002B06DB0A2B4FF037063B
:10099000B8BF302633448B54013AB2F1FF3FEBDC51
:1009A000204E002227A332701F4ACDE90005CDE971
:1009B00002480BAC2046CDE904121CA17F22FFF7B0
:1009C00011FC2046FFF79AFD82B25B48214641F2B6
:1009D000883302F007F810B14FF0FF301CE000F050
:1009E0008DFB564F044649F6404500F087FB001B3F
:1009F000A8420ADC30780128F7D13878452807D09A
:100A00004F28F2D10020307006E06FF0010003E0C3
:100A1000002030706FF002003DB0BDE8F08300BFF1
:100A2000226B0008BA030020206B000825637C2598
:100A3000737C25737C25737C25737C25737C2573DF
:100A40007C25730041440000B0B58EB001AD044672
:100A500032212846FFF7BEFD0B480CA17F2223461A
:100A600000902846FFF7BEFB2846FFF747FD82B2FD
:100A7000314829464FF47A7301F0B4FF002818BFBB
:100A80004FF0FF300EB0B0BD206B0008256341442D
:100A90004454494D457C25647C257300FEE770472E
:100AA000012000F047BA0000F0B59BB01C4D0020BB
:100AB00002AC1DA11FA37F2228701A480090204677
:100AC000FFF790FB2046FFF719FD82B21A48214636
:100AD0004FF47A7301F086FF10B14FF0FF301CE045
:100AE00000F00CFB154F044649F6404600F006FBAB
:100AF000001BB0420ADC28780128F7D13878452855
:100B000007D04F28F2D10020287006E06FF00100D6
:100B100003E0002028706FF002001BB0F0BD00BFA2
:100B2000BA030020206B000825637C25737C2573A5
:100B300000000000454D0000700100200000002072
:100B4000B0B586B00D46044600F0DCF903940024ED
:100B500001A805A90194049500F024F9054600F0C8
:100B600071F915B100F06AF90446204606B0B0BD2F
:100B7000E2480021C161E248016841F004010160DE
:100B8000016841F040010160704700BFDB4900226D
:100B9000CA61DB490A6842F002020A6048600868DC
:100BA00040F04000086070472B48016811F0100FBA
:100BB00001D1002105E0D149CA6942F00202CA61AF
:100BC0001021026812F0040F06D0CC4A41F0040153
:100BD000D36943F00103D361026912F0010F08D019
:100BE000C64AD36943F00403D361026922F00102CB
:100BF00002610160704700BFF8B5174E044600F06F
:100C00007DFA0546671C306810F0010F09D0002FEF
:100C1000F9D024B100F072FA401BA042F3D90320AE
:100C200016E0306810F0200F1CBF202030603068C4
:100C300010F0100F09D1306910F0010F05D13068A4
:100C400010F0040F01D1002002E0FFF7ADFF0120FA
:100C5000C0B201B0F0BD00BF0C200240F0B585B0BD
:100C60001D4616460F46044600F04CF9391B00207D
:100C70000394890A0190009001A80491694600F04C
:100C800091F80A9A02202946002300F0E3F8022096
:100C900021463246002300F0DDF800F0D3F805B01D
:100CA000F0BD90F82110022912D1016801230A68D1
:100CB00022F00E020A600A6822F001020A60D0E9FE
:100CC0000F1203FA02F24A60002180F8213002E09C
:100CD000042181630121002280F82020084670470A
:100CE00080B590F8211002291DD10368204A4FF0E9
:100CF000010C1968934221F00E011960196821F066
:100D000001011960194912D01A4A934211D01A4AA6
:100D1000934210D0194A934210D0194A934210D1ED
:100D20004FF4803215E00421816301211BE0012290
:100D30000FE010220DE04FF480720AE04FF4805271
:100D400007E001F1680E4FF08072734508BF4FF461
:100D500080120A60002180F8201080F821C0426BC8
:100D60000AB190470021084680BD00BF0400024040
:100D7000080002401C0002403000024044000240D3
:100D800058000240B0B5044600F0B8F90546DD4809
:100D9000611C007818BF044400F0B0F9401BA04269
:100DA000FAD3B0BD2DE9F041DFF8508105460C467D
:100DB00098F81800012801D102201BE0012088F8D2
:100DC00018004CF250302E68FFF716FF022E0CD19F
:100DD00060B9FFF7CDFE4CF25030FFF70DFF4849E8
:100DE0000A6822F004020A6001E030B1012000210B
:100DF00088F81810C0B2BDE8F0814FF0FF30404FC6
:100E000020600120A9680E4610E03046FFF7BEFEC4
:100E10004CF25030FFF7F0FE3968002821F0020153
:100E2000396009D1A96806F580660020EA6801EBFF
:100E300082218E42E9D3DAE72660D8E72F48C069DD
:100E4000704700BF2E48016841F08001016000201A
:100E5000704700BF2DE9F84FDFF8A08081461C469F
:100E600092460E4698F81800012801D1022042E06F
:100E7000012088F818004CF25030FFF7BDFEB8BBD7
:100E8000B9F1020F4F461E4D4FF0000B18BF04275B
:100E9000B9F1010F08BF4F466FF01F095FFA8BF0E1
:100EA000874224D900210201C8F81C102AFA02F254
:100EB000296841F0010129602021A1EB001104FA09
:100EC00001F1114309EB0012002AA8BF24FA02F134
:100ED00026F810104CF25030FFF78EFE29680BF107
:100EE000010B002821F001012960D7D000E000208B
:100EF000002188F8181001B0BDE8F08FC00700206D
:100F0000102002400748C16811F0800F04BF002084
:100F100070470549016005490160C068C0F3C01011
:100F2000704700BF0420024023016745AB89EFCD25
:100F30007047000003490A68024214BF0860704706
:100F4000FFF7F6BF140401402DE9FC4F594A042372
:100F50004FF0000B4FF001084FF00F0E4FF000095B
:100F60000025904208BF032300930A6832FA05F374
:100F700008BFBDE8FC8F08FA05F73A4200F09680FA
:100F80004A68032A16D9112A24D0122A26D04D4B9A
:100F90009A4213D04C4B9A4210D04C4B9A420DD0EF
:100FA0004B4B9A420AD04B4B9A4207D04A4B9A423B
:100FB00004D020E0DFE802F00216191D8A6832B181
:100FC000012A4FF0080914BF4761076113E04FF091
:100FD000040910E0CA6802F104090CE0CA6802F1D1
:100FE0000C0908E0D1F80C9005E0CA6802F1080984
:100FF00001E04FF00009082D5A46044628BF203A68
:1010000028BF043426680EFA02F309FA02F226EA2F
:1010100003031A432260CA79D20647D5284A0BF047
:101020000C0C1346126842F001021A601A680EFA9C
:101030000CF302F0010201921F4A019CAC08A2F5D8
:101040007E7656F8242022EA030A244A904208D0E9
:10105000234A904207D0234A009B904208BF0223B4
:1010600002E0002300E0012303FA0CF242EA0A0244
:1010700046F82420104E114C4A68B36812F4801FC1
:101080000CBFBB433B43B3609302236854BFBB43D5
:101090003B4323609303736854BFBB433B43D2037A
:1010A0007360326854BFBA433A4332600BF1040BA9
:1010B00001355AE700140140000401400C040140CE
:1010C0001810024000001110000012100000211042
:1010D0000000221000003110000032100008014012
:1010E000000C0140001001408068084018BF01203A
:1010F0007047002A08BF09040161704701488068F1
:10110000704700BF48000020B0B5044658B394F8BB
:101110003D0028B9002084F83C00204600F042FA47
:10112000242084F83D002068016821F0010101605D
:10113000016841F400410160016821F4004101604F
:1011400000F09CFB4C494D4B00224D4D88424FF026
:10115000000138BF0121984238BF01226368AB42C9
:1011600038BF0A460AB10120B0BD4649B0FBF1F2D2
:1011700021684D6825F03F0515434D600D6A25F047
:101180003F0C414DAB4213D80132013842EA0C0208
:101190000A625A004CF6FF73B0FBF2F001306FF3B5
:1011A0001F30042898BF0420CA6922EA030C3AE0E1
:1011B0004FF49675A0F1010E6A434FF47A75B2FBB5
:1011C000F5F24CF6FF75013242EA0C020A62CA6976
:1011D00022EA050CA26842B1192004255843BEFB3F
:1011E000F0F0013065F31F3006E003EB4300BEFB77
:1011F000F0F001306FF31F30000509D052B1192013
:1012000004225843BEFBF0F0013062F31F3008E0C7
:10121000012008E003EB4300BEFBF0F001306FF368
:101220001F3040F4004040EA0C00C8610868D4E96F
:10123000072320F0C000104348F2FF321843086033
:1012400088689043D4E90323184310438860C86832
:10125000D4E9052320F0FF0010431843C860086854
:1012600040F00100086000202021206484F83D1037
:10127000206384F83E00B0BD80841E0000093D005C
:10128000A186010040420F00A08601002DE9FE4F1B
:101290001D46904689460446FFF730FF074694F8FE
:1012A0003D0020280BD151492046012219230097E7
:1012B00001F035FC18B994F83C00012806D14FF034
:1012C000020B5FFA8BF003B0BDE8F08F01204FF006
:1012D000000A09F0FE09A0264FF0010B84F83C003B
:1012E0002068016811F0010F02BF016841F001019F
:1012F0000160016821F400610160242184F83D103F
:101300003B49C4F840A0E16235E0C1F81090FFF716
:10131000F5FE074607E0FFF7F1FE15B1C01BA84236
:1013200001D984F83D6020684169426994F83D30F4
:10133000A02B05D001F0020102F480621143EAD033
:10134000202184F83D104169026842F4007211F0D6
:10135000020F026028D12749012219234161234944
:101360002046009701F0DBFB0028AAD10AF1010A10
:10137000C24532D22068016800222B4641F48071B8
:10138000016020464FF00111009701F0C8FB216871
:101390000028BAD008684FF0030B10F4807F1CBF00
:1013A0004FF4007020648CE70025012219234FF0D0
:1013B000010B0295416902910C49806902900298E3
:1013C0000097204601F0ABFB00287FF47AAF202085
:1013D00084F83C504FF0000B05E000204FF0010B6B
:1013E00084F83C00202084F83D006AE702001000E9
:1013F0000000FFFFFFFBFFFF2DE9FC471F461646DD
:1014000089460446FFF77AFE824694F83D0020287C
:101410000ED1634D204601221923CDF800A005F519
:10142000702101F07CFB18B994F83C00012804D12C
:101430000220C0B202B0BDE8F0870120A5F102127F
:10144000DDF8288084F83C002068016811F0010F65
:1014500002BF016841F001010160016821F40061EF
:101460000160212184F83D10102184F83E100021F4
:1014700021646785618DE26266622185E16A11F50A
:10148000803F18BF01291CD1016841F480710160BF
:1014900020464FF0011100224346CDF800A001F094
:1014A0003EFB40B12068006810F4807F1CBF4FF401
:1014B0000070206425E02069B0F5804F07D1FE2040
:1014C00014E00829E0D0216B1229DDD0E0E70620E6
:1014D00021684246534600EAD91040F0F000086106
:1014E000A91D204601F064FB58B9FF20216800EADD
:1014F00009004246534608612046294601F058FB40
:1015000008B1012095E700204FF6FF760190206892
:1015100041690191806901900198208D88B320462E
:101520004146524601F09EFB10BB606A21680246AC
:1015300012F8013B0B616262628D013A6285228D75
:10154000571E278537424B6918BF13F0040308D094
:10155000437802300B616062901E2085608D0138F7
:10156000608520464146524601F0ACFA0028D4D0AE
:10157000206C0428C5D12068016841F40071016025
:10158000BFE72068016841F400710160202084F801
:101590003D00002084F83C0084F83E0049E700BF8D
:1015A0000200010010B586B00021CDE90411CDE99B
:1015B00002110168114881421DD13A4C00F53840B2
:1015C000216841F008012160216801F008010191C2
:1015D000019912210391C02102910321059102A9D1
:1015E000FFF7B2FC606840F400106060606800F4CF
:1015F00000100190019806B010BD00BF00540040DB
:1016000019480178826811448160704780B50748A5
:10161000016841F010010160032000F077F80F200D
:1016200000F006F800F022F8002080BD0020024003
:1016300070B50D4E04464FF47A713078B1FBF0F07E
:1016400098490968B1FBF0F000F0ACFC01250F2CC3
:1016500008D838B94FF0FF3021460022002500F0AD
:1016600033F87460284670BD4800002082B00D48F1
:101670000222016841F001010160016801F00101ED
:1016800001910199416841F080514160406800F04A
:101690008050009000980448016862F31A6101606C
:1016A00002B070471810024004000140002808DB17
:1016B00000F01F010122400902FA01F1014A42F83B
:1016C0002010704700E100E010B5164B1B68C3F313
:1016D000022E0EF1040CAEF103048EF00703BCF1F0
:1016E000070F4FF0010C38BF0024042B28BF042340
:1016F0000CFA03F3013B19400CFA04F3013BA1403F
:101700001A401143BDE8104002F0A0B905494FF658
:10171000FF030A681A4060F30A2203481043086076
:10172000704700BF0CED00E00000FA0505480129F4
:10173000026822F0040202600FBF30BF40BF20BF2A
:1017400020BF704710ED00E02DE9F04188460446C7
:10175000002800F08880464F4FF48050395801F03F
:10176000070141450AD2395821F0070141EA080131
:101770003950385800F00700404574D1206810F007
:10178000020F11D0410742BF796841F4E0617960EE
:10179000010742BF796841F4605179607968A268B5
:1017A00021F0F00111437960C00727D0606801285B
:1017B00004D1396811F4003F08D154E03968022897
:1017C00002D1890102D44EE089074CD5796821F015
:1017D000030108437860FFF791FC064641F2883523
:1017E0007868616800F00C00B0EB810F06D0FFF75D
:1017F00085FC801BA842F3D9032035E04FF48050CC
:10180000395801F0070141450AD9395821F007013B
:1018100041EA08013950385800F00700404522D10C
:10182000206810F0040F05D07968E26821F4E061C7
:1018300011437960000706D57868216920F460506B
:1018400040EAC100786000F031F87968094AC1F3D4
:101850000311515CC8401349086007480068FFF74E
:10186000E7FE002000E00120C0B2BDE8F08100BF2B
:10187000001002406F5500084C0000200948FA494A
:10188000094A00680968C1F30221515CC8407047E9
:10189000F748F549044A00680968C1F3C221515C60
:1018A000C8407047640000207F55000810B50D4CFB
:1018B0000D48226802F00C03082B18BF10BDC2F3BC
:1018C00083430AA112F4803FCB5C02D10C485843F9
:1018D00010BD216809A25843C1F34041515CB0FBDF
:1018E000F1F010BD0410024000127A00020304055A
:1018F000060708090A0B0C0D0E0F1010010200005C
:1019000000093D002DE9FE430446002800F05C81FB
:101910002078D44ED44FC007B14650D0386800F07C
:101920000C00042818D0386800F00C00082803D1F7
:10193000386810F4803F0FD16068A0B1B0F5803FE7
:1019400006D03168B0F5A02F25D141F48020306059
:10195000306840F4803024E0306810F4003F2ED02E
:10196000606860BB30E1306820F4803030603068FF
:1019700020F480203060FFF7C1FB0546D9F8000055
:101980004E4610F4003F1AD0FFF7B8FB411B03206E
:101990006429F3D919E121F480303060306820F4F3
:1019A00080203060FFF7AAFB0546306810F4003F46
:1019B00005D1FFF7A3FB401B6428F6D9E6E02078A9
:1019C00080072FD5386810F00C0F08D0386800F069
:1019D0000C0008280BD1386810F4803F07D130681C
:1019E00010F0020F17D02069012814D0ECE0216913
:1019F0009E48002900F08A8001210160FFF77EFBEC
:101A00000546306810F0020F05D1FFF777FB401B49
:101A10000228F6D9BAE03068616920F0F80040EA9F
:101A2000C10030602078000730D5A06980B18F48B0
:101A30000121C0F88014FFF761FB0546386A10F0F9
:101A4000020F16D1FFF75AFB401B0228F6D99DE082
:101A500086480021C0F88014FFF750FB0546386A1D
:101A600010F0020F12D0FFF749FB401B0228F6D9F5
:101A70008CE07F484FF4FA510068B0FBF1F002901F
:101A800000BF0298411E00280291F9D1207840073A
:101A900040F18580B86910F0805F0BD1B8694FF0D4
:101AA000010840F08050B861B86900F080500190A2
:101AB000019801E04FF000086E4E484659F80600C4
:101AC00010F4807F14D159F8060040F4807049F872
:101AD0000600FFF713FB0546484659F8060010F4C8
:101AE000807F05D1FFF70AFB401B6428F4D94DE045
:101AF000E068F0B1012805D0F969052831D141F03D
:101B00000400F861F86940F0010030E00021016054
:101B1000FFF7F4FA05464846D9F8000010F0020F26
:101B20003FF480AFFFF7EAFA411B03200229F2D904
:101B30004BE0F86920F00100F861F86920F004003A
:101B4000F861FFF7DBFA054641F28836F86910F0D4
:101B5000020F1DD0FFF7D2FA411B0320B142F5D985
:101B600033E021F00100F861F86920F00400F86129
:101B7000FFF7C4FA054641F28836F86910F0020F03
:101B800006D1FFF7BBFA401BB042F6D903201CE098
:101B9000B8F1000F1EBFB86920F08050B861E66947
:101BA000002E5DD0386800F00C00082811D1012EFD
:101BB0000AD03868216A00F480328A4204D1616A0E
:101BC00000F4701088424BD00120C0B203B0BDE8D1
:101BD000F0832649002088460866FFF78FFA0546FD
:101BE000022E0DD146464846D9F8000010F0007F7D
:101BF00013D0FFF783FA411B03200229F3D9E4E74E
:101C00004846D9F8000010F0007F29D0FFF776FA97
:101C1000411B03200229F3D9D7E7206AB0F5803FA2
:101C200005D13968A26821F400311143396039685F
:101C3000626A104321F47411084338600120306651
:101C4000FFF75CFA04464846D9F8000010F0007F20
:101C500006D1FFF753FA011B03200229F3D9B4E799
:101C60000020B2E70010024004100240000042428F
:101C7000640000200060FEFFD648016841F00201C8
:101C80000160704770B5044630B1606A30B1002021
:101C9000206104F1140007E001264CE06068B0F513
:101CA000827F03D004F11C000021016000264FF068
:101CB000000CA66294F8510038B9204684F85060B0
:101CC00000F03CF8A06A00F4005C022184F8511096
:101CD00021680A6822F040020A60D4E90123D4E9AD
:101CE000030502F4827203F4044300F400601A4313
:101CF000104305F002021043626902F00102104332
:101D0000A26902F400731843E36903F0380318432F
:101D1000236A03F08003184340EA0C0008600420A3
:101D200000EA12404860C86920F40060C8610120E0
:101D3000666584F85100304670BD000070B586B00D
:101D400000261A4CCDE90466CDE902660068A4F5C8
:101D50005441884227D1164802AD416841F4804180
:101D60004160416801F4804101910199016841F0AD
:101D7000080101602946006800F008000190019800
:101D8000022003904FF4204002900320059020464B
:101D9000FFF7DAF84FF48040039629460290204678
:101DA0000496FFF7D1F806B070BD00BF000C0140EB
:101DB000181002402DE9F843044690F850001E46E2
:101DC00015460F46012801D10220CAE0012084F8FF
:101DD0005000FFF793F994F85110814601296FD113
:101DE0000120002F00F0BA80002D00F0B780002EF7
:101DF00000F0B48094F85100731EDDF82080B3FA2F
:101E000083F304284FEA53131CBF052084F85100C4
:101E100000206065E687A563A6872763A686C4E9D8
:101E20001000E6862068016811F0400F02BF0168CB
:101E300041F0400101606168E268B1FA81F1B2F5F8
:101E4000006F4FEA511141EA030147D131B137F830
:101E5000021BC1602763E08E0138E086012608F18D
:101E60000105E08E10B9E08F00287ED020688168DF
:101E700011F0020F0CD0E18E012E09D141B1216B7E
:101E8000002631F8022BC2602163E18E0139E18620
:101E9000816811F0010F0AD0E18F41B1C068A16BD8
:101EA000012621F8020BA163E08F0138E087FFF7DC
:101EB00025F9002DD5D0A0EB09004045D1D349E04C
:101EC0006068B0F5827F07D10220042946D1A1685D
:101ED00000293FF485AF41E002203FE039B1397875
:101EE0000173206B01302063E08E0138E08601260B
:101EF00008F10105E08E08B9E08FB0B32068816871
:101F000011F0020F0ED0E18E012E0BD151B1216BD9
:101F1000002609780173216B206801312163E18E6D
:101F20000139E186816811F0010F0BD0E18F49B1D1
:101F3000C068A16B01260870A06B0130A063E08F20
:101F40000138E087FFF7DAF8002DD3D0A0EB0900C5
:101F50004045CFD3012084F851000320002184F8AC
:101F60005010C0B201B0BDE8F083204641464A4659
:101F700000F0BAFF18B1202060650120EEE7A068EC
:101F800038B9002000902068C168009180680090F6
:101F90000098616D01200029E0D184F851000020F3
:101FA000DCE70000411E0020B0EB116F1CBF0120D8
:101FB0007047084AF023516002490B700721906076
:101FC0001160704723ED00E00248016821F0020132
:101FD0000160704710E000E090F83C300222012BD5
:101FE00028D080B580F83D20012280F83C2002688E
:101FF0005368D2F808C0B2F1804F23F0700E0B681E
:1020000043EA0E035360BDE8804008D0F44B9A4287
:1020100005D0F14B9A4202D0F04B9A4204D1496864
:102020002CF08003194391600022012180F83C20AC
:1020300080F83D10D0B2704710B5044630B394F824
:102040003D0028B9002084F83C00204600F020F82C
:102050000220211D84F83D00206801F0CDF8012008
:1020600084F8460084F83E0084F83F0084F840007D
:1020700084F8410084F8420084F8430084F8440066
:1020800084F8450084F83D00002010BD012010BDFB
:102090000068B0F1804F18BF704781B005480168F3
:1020A00041F001010160006800F00100009000981B
:1020B00001B070471C10024090F83D1001291CBF70
:1020C00001207047022180F83D100068B0F1804F78
:1020D00008D0C349884205D0BF49884202D0BF49D1
:1020E000884204D1816801F00701062903D0016804
:1020F00041F0010101600020704700BF10B590F869
:102100003C2004460220012A70D084F83D000120C2
:102110004FF6777384F83C00206882689A438260A7
:102120000A6812B3102A20D0202A1ED0302A1CD0D0
:10213000402A21D0502A2BD0602A35D0B2F5005F3A
:102140003ED0B2F5805F4AD0702A51D1D1E9012347
:10215000C9681A4342EA0121826822F47F4211438E
:102160008160816841F0770138E0816821F0770172
:10217000114341F0070131E04B68CA68194601F08C
:1021800029F92068816821F0770141F0470125E0B5
:102190004B68CA68194601F01DF92068816821F072
:1021A000770141F0570119E04B68CA68194601F000
:1021B00022F92068816821F0770141F067010DE084
:1021C000D1E90123C9681A4342EA0121826822F455
:1021D0007F4211438160816841F480418160002029
:1021E000002184F83C10012184F83D10C0B210BDDC
:1021F0000120F5E7FEB50021CDE90411CDE902117A
:102200000068B0F1804F19D10D48016841F0080114
:1022100001600821006800F0080001900198022088
:10222000039002910590074802A9FEF78DFE06482B
:10223000064A01681140064A1143016006B080BD9C
:1022400018100240000C014004000140FFFCFFF8A0
:1022500000010007B0B5044690F83C000D46012887
:1022600001D1022041E04FEAB2010120032984F8A4
:102270003C0037D8DFE801F0020A12222068294624
:1022800000F0F6FF206850F8181F0EE0206829467D
:1022900001F01AF8206850F8181F16E02068294647
:1022A00001F042F8206850F81C1F41F0080101605D
:1022B000016821F00401016029690FE020682946C6
:1022C00001F062F8206850F81C1F41F400610160C1
:1022D000016821F4806101602969090202681143E3
:1022E00001600020002184F83C10C0B2B0BD10B5E0
:1022F000044630B394F83D0028B9002084F83C002F
:10230000204600F020F80220211D84F83D002068BE
:1023100000F072FF012084F8460084F83E0084F843
:102320003F0084F8400084F8410084F8420084F8BB
:10233000430084F8440084F8450084F83D00002000
:1023400010BD012010BD704710B5044641B10829E9
:1023500009D0042914BF04F1410004F13F0004E056
:1023600004F13E0001E004F14000007801281CBFA8
:10237000012010BD022041B1082909D0042914BF51
:1023800084F8410084F83F0004E084F83E0001E056
:1023900084F840002068012200F05AFF20680E49AE
:1023A000884209D0B0F1804F0AD00C49884207D04A
:1023B0000B49884204D008E04A6C42F400424A6467
:1023C000816801F00701062903D0016841F001018D
:1023D0000160002010BD00BF002C0140000800403B
:1023E0000004004070477047BCB5044600680268AE
:1023F0000146D0F80CE051F8143F12F00F0F65D0F1
:102400000EF4907503F0010C5CEA050368D0D00768
:102410001FBF1EF48070606C40F0010060645007C4
:1024200006D5BCF1000F1EBF606C40F00200606476
:10243000900706D5BCF1000F1EBF606C40F0040091
:102440006064100708D50EF0200050EA0C001EBF93
:10245000606C40F008006064606C002800F0098146
:102460000EEA0200800605D5204601F0CEF920686C
:1024700000F114010868616C00F0400001F00801EF
:10248000084300F0E280204601F098F92068416995
:1024900011F0400F01D1D3E0206850E8050F21680A
:1024A00020F0400041E80502002AF5D1E06B002849
:1024B00000F0C68074494163FEF712FC002800F06A
:1024C000D880E06B416BBDE8BC4008470EEA0201D2
:1024D00011F0200F06D02046BDE8BC4001F095B9B0
:1024E0000EEA0201226BCB063DD5012A3BD1002129
:1024F000019101680191416801910199416911F0CF
:10250000400F41D1E18DA28DE38D002B00F0B18011
:10251000511A0A0401D1ACE0206850E8030F226888
:1025200020F4907042E80303002BF5D1206850E8B6
:10253000050F226820F0010042E80503002BF5D1C9
:10254000202084F8420000202063206850E8030F18
:10255000226820F0100042E80303002BF5D102208E
:1025600089B2606357E00A065AD4490640F1818077
:10257000C16821F04001C160202084F8410020465C
:10258000BDE8BC4000F083BAE26B11684B6899B2B9
:1025900000296ED0B4F82CC061456AD2E3859169F8
:1025A000202901D131E0206850E8030F216820F490
:1025B000807041E80302002AF5D1206850E8050F39
:1025C000216820F0010041E80502002AF5D12068C9
:1025D00050E8050F216820F0400041E80502002A7C
:1025E000F5D1202084F8420000202063206850E8C4
:1025F000030F216820F0100041E80302002AF5D102
:10260000E06BFEF74EFBB4F82CC002206063E08D57
:10261000ACEB000081B22046BDE8BC40FFF7E2BE53
:1026200094F84110212924D1A168B1F5805F01D12E
:10263000216981B1216A4A1C22620978416011E056
:102640002046BDE8BC40FFF7CEBE2046FFF7CBFEDC
:1026500000206064BCBD216A31F8022B6FF35F2259
:1026600042602162E18C4FF6FF7201391142E18430
:1026700000D0BCBDC16821F08001C160C16841F0DB
:102680004001C160BCBD00BFB137000810B50446B1
:1026900048B394F8410028B9002084F8400020464F
:1026A00000F024F8242084F841002068C16821F457
:1026B0000051C160204601F00DF92068016921F444
:1026C00090410161416921F02A014161C16841F4F1
:1026D0000051C16000202021606484F8411084F81A
:1026E0004210606310BD012010BD000070B586B0BF
:1026F00000265249CDE90466CDE9026600688842A9
:1027000037D04F49884262D04E49884240F093808A
:102710004D484E4C02AD016841F4804101600168B2
:1027200001F4804101910199016841F004010160C7
:102730002946006800F004000190019802200390EF
:102740004FF400700290032005902046FEF7FCFB3A
:1027500000204FF4806103900291049020462946A6
:10276000FEF7F2FB252000210022FEF7ADFF252019
:102770005FE03548354C02AD416841F400314160BD
:10278000416801F4003101910199016841F00401AF
:1027900001602946006800F00400019001980220C1
:1027A000039004200290032005902046FEF7CCFB06
:1027B000082003962946029020460496FEF7C4FBA3
:1027C000262000210022FEF77FFF262031E01E4850
:1027D00002AD416841F480214160416801F48021EB
:1027E00001910199016841F00801016029460068E2
:1027F00000F0080001900198022003904FF48060DF
:10280000029003200590114800F580642046FEF7F1
:102810009BFB00204FF4006103900291049020463E
:102820002946FEF791FB272000210022FEF74CFFEE
:102830002720FEF73BFF06B070BD00BF00440040FC
:1028400000480040003801401810024000080140D4
:102850002DE9F843054690F842001C461746884685
:1028600020281ED1B8F1000F4FF0010018BF002F33
:1028700018D04FF000092220C5F8449085F8420096
:10288000C5F83090FEF73AFCAF85EF850646A8689C
:10289000B0F5805F0AD12F69002F0CBFC1464746B3
:1028A00029E00220C0B201B0BDE8F083474622E033
:1028B000284620213246234601F067F818BB5FB155
:1028C000A868B0F5805F0FD008B9286960B12868A2
:1028D000406800F07F0009E02868002740686FF337
:1028E0005F2029F8020B03E02868406807F8010B15
:1028F000E88D0138E885E88D0028D9D1202085F8B9
:1029000042000020CEE70320CCE710B590F842301B
:10291000202B07D1012431B12AB10024046301F036
:102920001BF800E00224E0B210BD0000E0B5294928
:1029300000680968884200D08CBD274801210170D9
:10294000264842780178012A0BD191B3022923D07D
:10295000012918BF8CBD22490978502927D101F0DF
:1029600087F81F4A0029137813D000214F2B0170DC
:1029700029D1012164234170D0680DF10701013094
:10298000D060412001228DF80700124800F02AF89B
:1029900019E0572B15D016E011490A784F2A06D1B5
:1029A000002202800869013008610A480DE0002118
:1029B00008E00B490978552903D04E2903D102219B
:1029C00000E001210170034805490122FFF79DFF46
:1029D0008CBD00BF70010020BA030020B8030020A6
:1029E000000000202DE9F843044690F841001D4600
:1029F0001746884620281CD1B8F1000F4FF001007F
:102A000018BF002F3FD04FF000092120C4F8449098
:102A100084F84100FEF772FBA784E7840646A068AD
:102A2000B0F5805F07D12769002F0CBFC14647462C
:102A300019E0022027E0474615E020468021324673
:102A40002B4600F0A2FFC0B91FB117F8011B206888
:102A500005E039F8021B206800276FF35F21416011
:102A6000E08C0138E084E08C0028E6D1204640214B
:102A700032462B4600F089FF08B1032003E02020F6
:102A800084F841000020C0B201B0BDE8F083704777
:102A9000FEE7000002680021536913F4806F0ED036
:102AA0006F4B53612022016380F83D2080F83E1077
:102AB00080F83C10016C41F00401016401210846DA
:102AC000704700BFF8B515460E4604464F1C2068F7
:102AD000406910F0040F1FD12046FFF7DBFFC8B993
:102AE000002FF4D0FEF70AFB16B1401BB042EED91E
:102AF0002068406910F0040FE9D1002020212063F4
:102B000084F83D1084F83E0084F83C00206C40F0CE
:102B100020002064012000E0002001B0F0BD2DE97C
:102B2000F047DDF820909846164604468FB201F42F
:102B30007F0503F1010AB5F5803F4FF0180008BF8B
:102B40001420216808583840C01BB0FA80F04009B2
:102B5000B0421CBF0020BDE8F087BAF1000FEAD0F8
:102B6000FEF7CCFAB8F1000F03D0A0EB0900404506
:102B7000E1D9B5F5803F4FF0180008BF1420216857
:102B800008583840C01BB0FA80F04009B042D2D19A
:102B900000202021206384F83D1084F83E0084F852
:102BA0003C00206C40F0200020640120BDE8F0874C
:102BB0002DE9F8439846914604468FB201F47F050B
:102BC000561C2068B5F5803F06D1014651F8142FF8
:102BD0003A40BA4206D12AE081693940B94226D04A
:102BE00000F11401096811F4806F22D1002EE8D0A1
:102BF000FEF784FAB9F1000F03D0A0EB08004845B6
:102C0000DFD92068B5F5803F0CBF40698069384046
:102C1000B842D6D000202021206384F83D1084F8EB
:102C20003E0084F83C00206C40F0200013E00020BF
:102C300013E0016841F4007101600949416100201D
:102C40002021206384F83D1084F83E0084F83C0085
:102C5000206C40F004002064012001B0BDE8F08346
:102C6000FFFBFFFFF8B515460E4604464F1C2068D3
:102C7000406910F0800F1FD12046FFF70BFFC8B945
:102C8000002FF4D0FEF73AFA16B1401BB042EED94D
:102C90002068406910F0800FE9D1002020212063D6
:102CA00084F83D1084F83E0084F83C00206C40F02D
:102CB00020002064012000E0002001B0F0BD0000F1
:102CC0002DE9F041804606980024C8E90B200898B9
:102CD000C8F83400C8F810300798C8F814000998EC
:102CE000C8F818000A98C8F81C000C98C8F820000A
:102CF0000E98C8F824001098C8F828000B98C8F857
:102D000000000D98C8F804000F98C8F80800119842
:102D1000C8F80C0008F138000BE0002504E005EBD2
:102D2000450601358F5D8755042DF8D101310130FD
:102D30000134032CF1D10A4C104699B20122A0476C
:102D4000B8F81410D8F830000122A047B8F81810CD
:102D5000D8F8340001222346BDE8F041184700BFEF
:102D6000F31000082DE9F8434FF00008044680F8FE
:102D700044801EE004EB88070022002637F8101F6D
:102D8000B94659F81C0FFEF7B4F908E004EB8605C4
:102D900034F82610E869FEF7A7F978B10136032E5A
:102DA000F4D93988D9F800000122FEF7A2F908F118
:102DB0000108B8F1020FDDD9002012E03220FDF742
:102DC000E1FF34F82610E869FEF78EF90028F8D004
:102DD00004EB080006EB4601084490F8380084F83C
:102DE000440001B0BDE8F083FEE7FEE77047000055
:102DF000F0B5B9B004460DF1170531492846224611
:102E0000FDF7F0F92846FDF779FB002103E015F8FE
:102E1000012B013811440028F9D12A4D00202FA39D
:102E200004908DF81400287001F00F0000F13702B3
:102E30000A2838BF40F030028DF81120C1F303108A
:102E40007F2200F137010A2838BF40F030011E48C8
:102E50008DF8101004A9CDE9004107AC02901BA128
:102E60002046FDF7BFF92046FDF748FB82B21C481B
:102E7000214641F28833FFF7B5FD10B14FF0FF3026
:102E80001CE0FEF73BF9174F044649F64046FEF7B3
:102E900035F9001BB0420ADC28780128F7D13878D0
:102EA000452807D04F28F2D10020287006E06FF0A7
:102EB000010003E0002028706FF0020039B0F0BD7F
:102EC000226B0008BA030020206B000825637C25D4
:102ED000737C25647C25737C2573000052450000BB
:102EE000700100200000002010B513460A46802122
:102EF000044600F00BF828B1606D40F020006065DA
:102F0000032000E00020C0B210BD00002DE9FC410C
:102F10001E4617460D460446FEF7F0F8301AC6194D
:102F2000FEF7ECF88046244801370068C0F3CB3048
:102F3000704301900DE067B1FEF7E0F8A0EB0800E8
:102F4000B04210D20198019901390028019108BFBF
:102F50000646206880682840A842ECD00020C0B215
:102F600002B0BDE8F0812068416821F0E0014160D5
:102F70006168B1F5827F0AD1A168B1F5004F02D036
:102F8000B1F5806F03D1016821F040010160A16AB1
:102F9000B1F5005F07D1016821F4005101600168BB
:102FA00041F400510160002084F85000012084F8B1
:102FB00051000320D3E700BF6400002080B56B48B8
:102FC0004FF48061FDF706FBBDE8804000F0B0B82B
:102FD000484A518010807047B0B545487821012299
:102FE00044F62063FEF752F9002400287ED1604D9C
:102FF00078200021AE22A847782000212022A8476F
:10300000782000211022A84778200021B022A8476C
:1030100078200021C822A847782000210022A84754
:10302000782000211022A847782000214022A847BC
:10303000782000218122A84778200021FF22A8477C
:1030400078200021A122A84778200021A622A847A5
:1030500078200021A822A847782000213F22A847F5
:1030600078200021A422A84778200021D322A84755
:10307000782000210022A84778200021D522A847E7
:1030800078200021F022A84778200021D922A847E3
:10309000782000212222A84778200021DA22A847A0
:1030A000782000211222A84778200021DB22A8479F
:1030B000782000212022A847782000218D22A847CF
:1030C000782000211422A84778200021AF22A847A9
:1030D000782000212E22A84724484FF48061FDF774
:1030E00079FA00F025F80348046001242046B0BDB9
:1030F00000030020D0000020BCB50446FDF7FEF917
:103100000A4D82B2214614232846FFF76BFC044681
:103110000A200DF1070101220A238DF80700284635
:10312000FFF760FC204602B0B0BD00BF6002002087
:1031300070B50E4C0E4E0025082D08BF70BDA5F1D0
:1031400050000021C2B27820B04778200021002230
:10315000B047782000211022B04778204021224635
:10316000802302F001F980340135E5E7BC0300203B
:10317000495300087047000010B5064C3320012168
:103180002070204602F040F9204600F073FF607A7C
:1031900010BD00BF30010020FEF732BAB0B590B0CC
:1031A00006AC2421201DFDF715FA01A81421FDF716
:1031B00011FA012000250A900220069010200B90A1
:1031C00020460D95FEF79EFB18B1EFF3108072B606
:1031D000FEE70F20CDE90455CDE90255002101900D
:1031E00001A8FEF7B1FA18B1EFF3108072B6FEE74E
:1031F00010B0B0BD70470000B0B50368744DB0F1B9
:10320000804F07D0104CA04204D0A84202D00F4CEF
:10321000A04207D14C6823F45C73CA6824F440745C
:10322000234313434A6923F08003A84242EA03027E
:1032300002608A68C2620A68826204BF09692963FF
:1032400001214161B0BD00BF000400400008004002
:1032500001F01F01012303FA01FC036A02FA01F1E4
:1032600023EA0C030362026A114301627047000003
:1032700070B5026A036A23F0010322F002020362BE
:10328000D0F804E0D0F818C08C680B6822432CF00A
:10329000730444EA030C4E4B98420CD1CE68D1E93A
:1032A00005452EF4407322F00C02234343EA050E39
:1032B00026F004031A43C0F804E0C0F818C04968B7
:1032C0004163026270BD00BF70B5026A036A23F0F9
:1032D000100322F020020362D0F804E0D0F818C0F6
:1032E0008C680B6842EA04122CF4E64444EA032C8E
:1032F000374B98420FD1CE68D1E905452EF4406393
:1033000022F0C00243EA840343EA850E6FF04F03C4
:1033100003EA06131A43C0F804E0C0F818C049686D
:103320008163026270BD00BF70B5026A036A23F454
:10333000807322F400720362D0F804E0D0F81CC05D
:103340008C680B6842EA04222CF0730444EA030CF4
:103350001F4B98420FD1CE68D1E905452EF440535A
:1033600022F4406243EA041340F2FF4443EA051E9C
:103370003302A3431A43C0F804E0C0F81CC04968F4
:10338000C163026270BD00BFB0B5026A036A23F474
:10339000805322F400520362D0F804E0C5698B68C0
:1033A0000C6842EA033C0A4B25F4E64242EA042256
:1033B000984204D14B692EF4804545EA831EC0F83B
:1033C00004E0C26149680164C0F820C0B0BD00BF1C
:1033D000002C0140D0F820C0036A23F001030362EF
:1033E000836923F0F00343EA021282612CF00A029F
:1033F000114301627047D0F820C0036A23F0100324
:103400000362836923F4704343EA023282612CF041
:10341000A00242EA01110162704780B5142000F059
:10342000B7F8800718BF80BD14200321BDE8804095
:1034300000F0EDB81CB504460D20002100F07EF927
:1034400042F2930021460222234620800DF106001D
:1034500000900C2000F0E7F858B90020002101E0AE
:1034600051400130225C0428FAD10220914208BF69
:10347000002002B010BD70B50D460646052004219F
:10348000144600F035F80A20802100F0C0F805E06D
:1034900016F8011B092000F051F9013D002DF7D16C
:1034A0000120032100F04AF9FF25052000F070F803
:1034B000013D15F0FF0F02D010F00400F5D02220DE
:1034C00000F066F82070212000F062F8607070BD96
:1034D000B0B504462620214600F076F8054618B916
:1034E0002046FFF7A7FF054600F01DF82846B0BDAF
:1034F000B0B50C46054600F04BF820EA040128461A
:10350000BDE8B04000F01AB90022D3B2042B07D8AE
:1035100011F803C0C35C01326345F6D0022000E01D
:103520000020C0B270471FB550200DF10A040221DF
:10353000ADF80A00A21C2046FFF79DFF0DF10E001A
:1035400021460422234600900C2000F06CF81FBD99
:1035500010B500F058F80D4C2A208D21A0472B20E3
:103560003E21A0472D201E21A0472C200021A0474E
:1035700026207021A04715204021A04711203D2181
:10358000A047BDE81040FFF748BF00BF3D37000827
:10359000B0B5774C05464FF4805100222046FDF728
:1035A000A8FD45F040004000C0B200F0E3F8002064
:1035B00000F0E0F8054620464FF480510122FDF767
:1035C00098FD2846B0BD00BFBCB50C4605460D2091
:1035D000072100F0B3F80DF1060025702146012205
:1035E000234600900C2000F01EF8BDF806100222C1
:1035F00010294FF0020108BF0146002818BF1146EC
:10360000084602B0B0BD01200F2100F097B8B0B558
:103610000C460546FFF7BCFF40EA04012846BDE81A
:10362000B04000F08BB82DE9F84F9A4616460F4689
:1036300083460C2806D0BBF10E0F07D111244FF0A2
:10364000120906E031244FF0770902E001244FF01F
:10365000000949F08000DDF82880C1B2022000F0A6
:103660006DF804208021FFF743FF0A208021FFF737
:10367000CEFF01200021002500F060F804E0395C55
:10368000092000F05BF80135A8B2B042F7D3012061
:10369000594600F053F8BBF10C0F03D10D208021E7
:1036A000FFF7B5FF4FF4FA654FF6FF770420FFF7F9
:1036B0006FFF013D06463D4236D03442F6D00D2024
:1036C0008021FFF715FF0620FFF762FF10F01B0FA8
:1036D0002ED109EA0600BBF10C0F00F0010428D13D
:1036E0000A20FFF755FF05460C20FFF751FFE900C0
:1036F00010F007002E461EBFC0B208390143102D3E
:10370000A8F8001028BF1026002D4FF0000508BFB4
:10371000012605E00920FFF73BFF0AF80700013505
:10372000AFB2BE42F6D804E00D208021FFF7E0FEE4
:103730000224E0B201B0BDE8F08F000070B50C4C7F
:103740000D4606464FF4805100222046FDF7D1FC7D
:103750007E2000EA460000F00DF8284600F00AF846
:1037600020464FF480510122BDE87040FDF7C1BCF6
:10377000000C01401CB50D4C8DF8070020688168D5
:1037800011F0020FFBD00A200DF107010DF1060226
:10379000012300902046FEF70DFB2068816811F0A0
:1037A000800FFBD19DF8060002B010BD6003002021
:1037B000406A0021C185C184FEF715BE016851E849
:1037C000031F026821F4907142E80313002BF5D126
:1037D000016851E8051F026821F0010142E8051364
:1037E000002BF5D1016B012909D1016851E8031FB4
:1037F000026821F0100142E80313002BF5D12021CB
:1038000080F8421000210163704790F8421022298D
:1038100018BF70478368B3F5805F05D10169B1B106
:1038200000F128010A680BE00146002B51F8282F0F
:1038300001D1036923B103685B6803F07F0301E0F2
:1038400003685B6813700A6801320A6007E0016868
:10385000826A49686FF35F2122F8021B8262C18D80
:103860004FF6FF7201391142C18500D070470168DF
:10387000CA6822F02002CA60CA6822F48072CA6054
:103880004A6922F001024A61202280F84220002287
:103890004263036B012B18BFFFF748B8026351E87E
:1038A000031F026821F0100142E803130168002B96
:1038B000F5D10A6812F0100F08D081B000220092F2
:1038C0000A68009249680091009901B0818DFEF765
:1038D00089BD000010B5044600680169E26821F462
:1038E0004051114341F20C620161D4F808C0D4E99F
:1038F00004E3C16891434EEA0C021A431143C160CC
:103900004169A26921F44071114341611149884222
:1039100002D0FDF7B3FF01E0FDF7BAFF19214843DC
:10392000D4E900126FF063049200B0FBF2F064225D
:10393000B0FBF2F303FB0400322404EB0010B0FBF5
:10394000F2F000F0F00200F00F0002EB031210435F
:10395000886010BD003801400023C2854364828521
:103960008162222180F842100168006918B1C8689C
:1039700040F48070C860486940F001004861C86840
:1039800040F02000C860002070472DE9F0411D463E
:1039900090460F4604465E1C206800683840B842D6
:1039A00026D0002EF8D02DB1FDF7A8FBA0EB080023
:1039B000A842F1D9206850E8030F216820F4D070A4
:1039C00041E80302002AF5D1206850E8050F21687C
:1039D00020F0010041E80502002AF5D12020002155
:1039E00084F8410084F8401084F84200032000E08D
:1039F0000020C0B2BDE8F0810148FEF7F5BC00BF71
:103A0000B00200200148FEF7EFBC00BF70010020AB
:103A10000148FEF7E9BC00BF60020020FEE700009D
:103A200010B5094C4FF4005100222046FDF761FB10
:103A30003220FDF7A7F920464FF400510122BDE8DE
:103A40001040FDF756BB00BF0010014010B5074CF9
:103A500000F00F03044AB0F1FF3F2344C8BF8318AE
:103A60000801187010BD00BF00E400E014ED00E094
:103A70000648BFF34F8F064A016801F4E061114325
:103A80000160BFF34F8F00BFFDE700BF0CED00E00A
:103A90000400FA054FF0000C0022082A04BF60461B
:103AA0007047835C0132A3F13001C9B209299CBF80
:103AB00003EB0C11A1F1300CEFE700F0CBBA0000E2
:103AC000B0B586B00446FFF779FA0A201421FFF753
:103AD0007FFA1E201E21FFF77BFAFFF729FB00204B
:103AE00000F060F84FF6FF7021462080012000F0C2
:103AF00025F90546092821D0012D2BD0A5BB24A0EE
:103B0000072128221E2301F0E5FC4FF4FA70FDF78F
:103B100039F9228801AC20A12046FCF763FB20463E
:103B2000FCF7ECFC81B220461E221E2301F0D2FCE1
:103B30004FF47A70FDF726F900251DE010A00B2147
:103B40001E221E2301F0C6FC4FF47A70FDF71AF90D
:103B5000092511E00D48142101F096FC4FF47A700C
:103B6000FDF710F9012507E032480E2101F08CFC29
:103B70004FF47A70FDF706F9284606B0B0BD00BFD5
:103B80004E6F74206D61746368210000CA6A00087A
:103B90004D61746368210000557365722049443A91
:103BA0002025640010B5012000F012FF044607280C
:103BB0000AD8DFE804F0041E151515152832322046
:103BC000FDF7E0F8002431E0152C09D11848242134
:103BD00001F05AFC4FF47A70FDF7D4F8152425E073
:103BE00014480E2101F050FC4FF47A70FDF7CAF82A
:103BF0001CE0F048142101F047FC4FF47A70FDF707
:103C0000C1F8012412E0F548102101F03DFC4FF409
:103C10007A70FDF7B7F8062408E0EF48242101F098
:103C200033FC4FF47A70FDF7ADF80724204610BD41
:103C3000EC6A0008DE6A000810B54C4C0020052133
:103C4000C4F8010013202070204601F0DDFB20465F
:103C500000F010FA0248407BB0FA80F0400910BD35
:103C6000E000002080B5FCF7DDFCB0FA80F04009F0
:103C700080BD000010B53D4C05200121207020467C
:103C800001F0C2FB204600F0F5F9607A10BD00BFDC
:103C900010B504460548406A6077204600F0FEFEF5
:103CA00004F11E00BDE8104000F0A2BE000000209C
:103CB00010B5EF4C0521A0700C2020804FF48070CF
:103CC000A4F80300204601F09FFB204600F0D2F943
:103CD000607A10BD10B5E64C0D2001212070204601
:103CE00001F092FB204600F0C5F9607A10BD00BFDC
:103CF00010B5DF4C1F2002212080204601F084FBFC
:103D0000204600F0B7F90A204FF0000C292884BFA4
:103D10004FF0FF3010BD002209E0215C11F0010FCF
:103D200004BF0CEB020010BD49081A462154531C75
:103D3000082BF2D994440130E8E700BFB0B5CC4D70
:103D40000C4606216870042028704FF08040C5F8AA
:103D50000200284601F058FB284600F08BF96889DC
:103D600000BA000C2080687AB0BD00BF300100208E
:103D70002DE9F04399B0804686A0192101F084FB1B
:103D8000DFF850928B4C8A4D4FF0FF378AA61CE02B
:103D900000F060F90746032806D8DFE807F00207BD
:103DA0000A0E30461A210AE0484607E02046142150
:103DB00005E06420FCF7E6FF07E028460E2101F04D
:103DC00063FB4FF47A70FCF7DDFF002FE0D1012098
:103DD00000F0FEFD0546072800F27780DFE805F0D9
:103DE00004827D7D7D7D888E7D48102101F04CFB15
:103DF0004FF47A70FCF7C6FF7AA00E2101F044FB65
:103E00004FF4FA60FCF7BEFF4FF0FF3001E000F026
:103E100021F90228FBD177A0182101F035FBDFF84A
:103E2000B491644C624D4FF0FF3778A61CE000F06F
:103E300011F90746032806D8DFE807F002070A0E43
:103E400030460C210AE0484607E02046142105E0F0
:103E50006420FCF797FF07E028460E2101F014FBD1
:103E60004FF4FA70FCF78EFF002FE0D1022000F033
:103E7000AFFD0546072828D8DFE805F004342F2FCA
:103E80002F2F3A405648102101F0FEFA4FF4FA70F5
:103E9000FCF778FF6C4660A142462046FCF7A2F989
:103EA0002046FCF72BFB81B2204601F0EDFAFFF72C
:103EB000E1FE054658B3012D14D00A2D0DD15CA0AA
:103EC000112101F0E1FA0A251DE0152D05D1424826
:103ED000242101F0D9FA152515E03E480E2101F004
:103EE000D3FA10E03348142101F0CEFA01250AE09C
:103EF0003A48102101F0C8FA062504E0364824218A
:103F000001F0C2FA0725284619B0BDE8F0834D48F4
:103F1000102101F0B9FA4FF4FA70FCF733FF404674
:103F200001F040FA054678B1012D17D00B2D1ED0B7
:103F3000182D26D14448172101F0A6FA4FF47A70C3
:103F4000FCF720FF1825DEE74148082101F09CFA24
:103F50004FF47A70FCF716FF0025D4E715481421BA
:103F600001F092FA4FF47A70FCF70CFFBEE7374885
:103F7000212101F089FA4FF47A70FCF703FF0B2539
:103F8000C1E714480E2101F07FFA4FF47A70FCF774
:103F9000F9FEB8E750757420796F75722066696E06
:103FA000676572206F6E2073656E736F720000001C
:103FB000BC6A0008CA6A0008537563636573736658
:103FC000756C6C792067657420616E20696D61671E
:103FD00065000000DE6A0008EC6A0008106B00084B
:103FE000746A000852656D6F76652066696E676554
:103FF00072000000506C6163652073616D6520661E
:10400000696E67657220616761696E00496D6167FD
:10401000652074616B656E004372656174696E67DB
:10402000206D6F64656C20666F722023256400002C
:1040300046696E676572206E6F74206D6174636887
:10404000000000005C6A0008846A00089B6A00089F
:104050006C6A000810B5064C012001212070204632
:1040600001F0D2F9204600F005F8607A10BD00BFDB
:1040700030010020F8B54021FF220446FCF7A2FAE7
:104080001C4E002737601EE0DFE807F0050C1C1C03
:104090001C1C1C1117002878B0F1EF0718BF4FF057
:1040A000FF370FE02878012821D101270AE028787E
:1040B0003168072701EB002003E0287831680827E2
:1040C000084430600137E519284601F06FF8082FE1
:1040D000DAD96C1C002503E0601901F067F801359E
:1040E000306801388542F7DB002001B0F0BDFF20C9
:1040F000FBE700BFE007002080B5FEF75FFF14205C
:104100001E21FEF765FF11490DA00122FEF7F4FF05
:10411000FFF70EF8FFF730F838B10DA0152101F0C8
:10412000B3F94FF47A70FCF72DFEFDF74DFF002038
:104130000121FDF7FBFABDE88040FDF79DBD00BF02
:104140005A7A7A7A2E2E2E2E000000005C00002073
:1041500046696E6765727072696E74206E6F742046
:10416000736C6565700000002DE9F0418CB02B4F39
:104170002CA532A6B8680068F861786228488046A5
:104180000068786111E0FC692846142101F07CF98F
:10419000DCBB4FF47A70FCF7F5FD3046162101F0D8
:1041A00073F94FF47A70FCF7EDFDFFF7A1FDC0B293
:1041B000FFF7DEFD0028E6D1786A02ADF8612846F7
:1041C000FFF766FDFFF72CFC9DF8252005F11E0189
:1041D0002846FCF785FB002807BF22A00E211DA062
:1041E0000D2101F051F94FF4FA60FCF7CBFDF869AD
:1041F000BB687A693E490130F86100904046FCF79F
:104200002DFD02A800F084FF05E040F2DC50FCF731
:10421000B9FD062078700CB0BDE8F08100000020E8
:104220001AF800084661696C656420456E726F6C0F
:104230006C2046696E676572000000005072657000
:104240006172696E6720656E726F6C6C2061676168
:10425000696E00004661696C204144442055534515
:104260005200000053756363657373205570646179
:104270007465000080B5FEF7A1FE00F0A3FFE248E0
:10428000817809B10321417080BD00BFBCB5FEF744
:1042900095FE0A201221FEF79BFEE04C12480122F7
:1042A0002146FEF729FF00201E21FEF791FE0F4850
:1042B00021460122FEF720FFFEF73AFFD24D05F11D
:1042C0004004204600F0C8FB2046FFF7E3FBAB6844
:1042D000024607491868686200907D48FCF7BEFCFA
:1042E000BDE8BC40FEF76ABE3A6B0008256B0008CB
:1042F0000000010870B5234E234C00200121F0611D
:104300002046FCF71DFC10B120A014211AE0FCF798
:10431000F9FDF26902202146D317FCF79BFDFCF75B
:1043200091FDFFF7D7FC10B11EA013210AE022A0D7
:104330000C2101F0A9F8FFF773FBFCF7B5FB38B1CE
:1043400021A0152101F0A0F84FF0FF35284670BDDF
:1043500023A0162101F098F8FCF7D4FD264A04F1B9
:104360001801022000230025FCF774FD234A04F104
:104370001C0102200023FCF76DFDFCF763FD757046
:10438000E4E700BF0000002000F80008456D7074ED
:10439000696E6720666C617368206661696C65642C
:1043A00000000000456D7074792073656E736F7244
:1043B000206661696C65640048616E646C696E6753
:1043C000202E2E2E000000004661696C6564206579
:1043D0006D707479206461746162617365000000BE
:1043E000456D7074792064617461626173652073D6
:1043F0007563636573730000FFFF11111100FFFF08
:1044000070B514200021FEF7E3FD2C482C49012251
:10441000FEF772FE00201421FEF7DAFDD04929A034
:104420000122FEF769FEFEF783FE4FF4FA70FCF7F7
:10443000A9FCE74D2649A868006868620028096859
:10444000E861696105D1FFF78FFE2FE06420FCF77A
:1044500099FC0020FFF731FB0028F7D105F120047B
:104460002046FFF72DFB08B3092804D1002610E0F1
:104470006420FCF787FC0020FFF71FFB0028F7D122
:104480002046FFF71DFB70BD022E12D0092808BF81
:1044900001360020FFF711FB18B16420FCF772FC15
:1044A000F7E72046FFF70CFB0028EDD106206870E7
:1044B00070BD0020E870A5F8010070BD346B0008E5
:1044C0005C00002046494E4745525052494E540028
:1044D0001AF80008B0B5002014210024FEF778FD7A
:1044E000FEF726FEE34D05F12000FFF7E9FA08B1DB
:1044F0006C70B0BD02206870FFF792FA286ABDE8C0
:10450000B040FCF7A1BA00BF2DE9F0471E201421EE
:10451000FEF75EFD3A483B490122FEF7EDFDFEF74E
:1045200007FEFCF7EBFDDFF8E0903C4D044641F25E
:1045300089360FF210180FF2241A09F12D0706E040
:104540003846FEF7C5FF98B33220FCF71BFCFCF79A
:10455000D5FD001BB04221D3FEF730FD0A20142107
:10456000FEF736FD404629460122FEF7C5FD0A202A
:104570001E21FEF72DFD504629460122FEF7BCFD07
:10458000FEF7D6FD4FF47A70FCF7FCFBFFF7B4FDA5
:10459000FCF7B4FD044600F023FFD5E7D9F81C0072
:1045A00040B10020FFF789FA0028C9D1012022E09C
:1045B000042020E0FEF702FD144D23200021A8472F
:1045C000164C174E12A001222146B0470F2014218D
:1045D000A84714A021460122B04714201E21A84755
:1045E00014A021460122B047FEF7A2FD4FF47A70D5
:1045F000FCF7C8FB032089F80100BDE8F08700BF85
:104600002C6B00085400002000000020D12F00086F
:104610004E6F207573657221210000005C00002040
:10462000F9300008506C6561736520616464206E28
:104630006577000066696E6765727072696E7421D5
:1046400021000000476F696E6720696E746F205308
:104650004C454550204D4F4445000000696E2031C7
:10466000207365636F6E6473000000002DE9F843EA
:10467000FEF7A4FCDFF8DC801E201E21C04738496D
:10468000DFF8E09034A00122C847FEF751FDC820B2
:10469000FCF778FB344C2046FEF764FB05461420FB
:1046A00000210027C047324E304801223146C8471A
:1046B0000A200A21C0472FA031460122C8470A20FC
:1046C0001421C04730A031460122C8470A201E21CC
:1046D000C04732A031460122C8470A202821C047DE
:1046E00031A031460122C8470A203221C04732A0FA
:1046F00031460122C84732A6E8B2232818BF012F4D
:1047000021D0FEF715FD2046FEF72CFB054630387C
:104710000328F1D8DFE800F00D020508FFF7B6FD29
:1047200004E0FFF721FD01E000F0A6F8FEF746FCEB
:10473000E2E7FFF7DFFD20B130460C2100F0A4FED8
:10474000F4E70127F2E7FEF739FC8C4800214170BD
:10475000BDE8F883D12F00084D454E5500000000FC
:1047600054000020F9300008C0010020346B00081C
:104770005C000020302E456D7074792044617461B6
:104780006261736500000000312E4368616E6765E9
:104790002070617373636F6465000000322E4164A2
:1047A0006420757365720000332E52656D6F7665F7
:1047B0002075736572000000232E4578697400002F
:1047C0004661696C656420656D7074790000000055
:1047D0000000002070B51E201421FEF7F9FB1C49D3
:1047E00019A00122FEF788FCFEF7A2FC194EFA215F
:1047F00040F2E242306801E0816301319142FBD135
:10480000154C80212046FCF76FFC00B170BDFCF711
:1048100075FC054620468021FCF766FC78B9FCF75C
:104820006DFC401BB0F5FA6FF4D9FEF7C7FB30689A
:1048300040F2E24101E081630139FB29FBD24F489C
:104840000021417070BD00BF4F50454E494E47009A
:1048500054000020100200200008014080B5FEF73F
:10486000ADFB00F07BFB4548C17809B105214170E3
:1048700080BD00BF000000202DE9F04385B0FEF7A9
:104880009DFB00201E210027FEF7A2FB3A4C37A01B
:1048900001222146FEF730FCFEF74AFCC74D4B26AD
:1048A0000DF10C090DF1080814E02846FEF75AFA3C
:1048B000002802900ED049F82700B0B21E21FEF762
:1048C00087FB404621460122FEF716FCFEF730FC2E
:1048D00001370736022FE8D3284D294CA868DDE9B7
:1048E0000367006868622168E8614FF47A70696163
:1048F000FCF748FA06EB8600E96907EB4000A0F5F3
:10490000047088420FDDFEF759FB14201E21FEF7CC
:104910005FFB19492AA00122FEF7EEFBFEF708FC17
:104920004FF47A701DE06871C0B2FFF7C1F9D0B9D9
:10493000E869AB686A6913490138E861009020466C
:10494000FCF78CF9FFF76CF86879FEF751FA00284C
:1049500019BF0DA0172112A01F2100F095FD4FF4E3
:10496000FA60FCF70FFA05B0BDE8F08352656D6F91
:1049700076652049443A20005C00002000000020B9
:104980001AF80008000001084661696C207570641F
:10499000617465206F6E206461746162617365008B
:1049A00052656D6F7665206F6E206461746162611F
:1049B0007365207375636365737366756C6C7900DA
:1049C0004944206E6F7420666F756E64210000008C
:1049D00010B5064C0221607002202070204600F0C5
:1049E00013FD2046FFF746FB607A10BD3001002022
:1049F0002DE9F8430446FEF7E1FA00201E210027C6
:104A0000FEF7E6FADFF8AC9811A001224946FEF75E
:104A100073FBFEF78DFB694E2825E846082F28BF5B
:104A2000BDE8F8833046FEF79DF900280090F5D0E8
:104A3000E055A8B21E21FEF7CBFA404649460122B6
:104A4000FEF75AFBFEF774FB01370735E6E700BFB8
:104A50004D4E563A200000002DE9F843574DDFF83F
:104A60005498044600264127E846062E28BFBDE894
:104A7000F8832846FEF776F900280090F5D0A05577
:104A8000B8B21E21FEF7A4FA404649460122FEF7BD
:104A900033FBFEF74DFB01360737E6E72DE9F04F14
:104AA00089B00446FEF78AFAE9461D214846FBF71D
:104AB00091FD00201E210025FEF78AFADFF8F4A7F9
:104AC0003BA001225146FEF717FBFEF731FB3B4F9F
:104AD00028260DF120084FF0200B51E03846FEF754
:104AE00041F900284CD0A0F12301162938D8DFE87D
:104AF00001F00C3737373737373737373737370E17
:104B00001115191D2125292D31001D2528E0CDF86D
:104B100020B025E04121422243231EE044214522CA
:104B200046231AE047214822492316E04A214B2216
:104B30004C2312E04D214E224F230EE050215122F2
:104B400052230AE053215422552306E056215722CE
:104B5000582302E059215A22002300F0A9FA0890B4
:104B600008981E2109F80500B0B2FEF731FA404658
:104B700051460122FEF7C0FAFEF7DAFA0135073690
:104B80001D2DFFF6ABAF6D4620462946FBF792FC84
:104B9000FEF714FA0A203221FEF71AFA06492846CF
:104BA0000122FEF7A9FAFEF7C3FA09B0BDE8F08FBB
:104BB0004E616D653A0000005C000020C0010020DD
:104BC0002DE9F04F9BB0DFF878074FF0000980F82F
:104BD0000390C0F81890A0F80190FCF717FDD14998
:104BE00020204FF0010B4FF0020A4FF40048102331
:104BF0000B90402001F5504701F5544601F558450A
:104C0000CA490A97CDE90870C7483A46CDE9007A03
:104C1000CDE90258CDE9046ACDE9066BFEF750F8FC
:104C2000FEF7BCFAC248C34C0022016841F01001F3
:104C30000160016801F010010D910D99016841F0CA
:104C400020010160016801F020010D910D990168BA
:104C500041F004010160016801F004010D910D991A
:104C6000016841F0080101604FF40041006800F064
:104C700008000D900D982846A047384612210022C2
:104C8000A04730464FF480510022A047CDE90D8B5C
:104C90000DACDFF8A4822846CDE90F9A2146C04723
:104CA000A6482146CDE90DB03846CDF83CB0C04706
:104CB0001220CDF838B021460D903846CDE90F9A34
:104CC000C047E020CDF8389021460D903846CDF809
:104CD0003CB0C0470320CDF8389021460D903046B7
:104CE000CDF83CB0C0474FF48050CDF838B02146E5
:104CF0000D903046CDE90F9AC0474FF40056284634
:104D00002146CDF838B00D96CDE90FAAC047894BA2
:104D10002846844D4FF40051012298470620002177
:104D20000022FCF7D1FC0620FCF7C0FC8448854932
:104D300005F5E0524FF48043C0F82090C0E900210F
:104D4000C0E90299C0E90439C0E90699FCF7DCF929
:104D500018B1EFF3108072B6FEE77B48C24F4FF4F4
:104D6000614105F580330C22C0E90031C0E90296AB
:104D7000C0E90492C0E90699FDF788FC18B1EFF389
:104D8000108072B6FEE771484FF4827100244FF430
:104D90000072C0E900510A21C0E90244C0E904449C
:104DA000C0E90624C0E90844C0E90A41FCF76AFFEB
:104DB00018B1EFF3108072B6FEE70DA81C21CDE903
:104DC0001944CDE91744CDE91444FBF703FC6048CE
:104DD0000F214FF0804242F20F73C0E90021C0E979
:104DE000024304618461FDF727F918B1EFF31080E5
:104DF00072B6FEE74FF4805017A917905448FDF79C
:104E00007DF918B1EFF3108072B6FEE75048FDF758
:104E10006EFA18B1EFF3108072B6FEE74C4800242A
:104E200014A9CDE91444FDF7D7F818B1EFF31080B9
:104E300072B6FEE760200E940DA904220D9044483E
:104E40000F941194FDF706FA18B1EFF3108072B6C3
:104E5000FEE73F48FDF7CEF93E484FF4164105F511
:104E600040622E4600240C25C0E90021C0E902441E
:104E7000C0E90445C0E90644FDF708FC18B1EFF3AA
:104E8000108072B6FEE734484FF4E13106F58052E7
:104E9000C0E90021C0E90244C0E90445C0E9064474
:104EA000FDF7F4FB18B1EFF3108072B6FEE7FEF7E2
:104EB0004FFBFEF791F8264C2046FDF7FDF8204603
:104EC0000421FDF741FAFEF7B7FE00F01DFAB868BD
:104ED000644901223C46006878620968F8611D480F
:104EE00079613946FDF711FD60780628FCD8DFE8C6
:104EF00000F004070A0D10131600FFF705FBF3E797
:104F0000FFF7E8FAF0E7FFF765FCEDE7FFF7A6FC2F
:104F1000EAE7FFF7AFF9E7E7FFF772FAE4E7FFF731
:104F2000A5FBE1E700380040C0010020506A0008FE
:104F300018100240F3100008490F0008000021106B
:104F400000030020801A0600B00200206003002049
:104F50001002002070010020600200202DE9F04FB7
:104F60009BB04048404C0DF101010068606100F0C9
:104F70002DFADFF8F88014200021C0473D4D3C4851
:104F8000DFF8F49001222946C8470A201221C047C1
:104F90003A4829460122C84700201E21C047384808
:104FA00029460122C847FEF7C3F804F139060FF27B
:104FB000E00A02AF0FF2E40B2AE0A069411C0328CB
:104FC000A16146DA14203221C0472EA029460122D1
:104FD000C847FEF7ADF84FF4FA70FBF7D3FEFDF7C4
:104FE000EDFF00201E21C047504629460122C84738
:104FF00000202821C047A26938465946FBF7F2F83D
:10500000384629460122C847FEF792F80020E07092
:105010003046FFF721FD30460DF10101FEF722FE7B
:105020000028CAD028203221FDF7D2FF11491EA046
:1050300001220125FEF760F8FEF77AF84FF4FA70C6
:10504000A4F80350FBF79EFEFDF7B8FF0020A06117
:1050500004E00020A0616080FDF7B0FF1BB0BDE858
:10506000F08F00BF1AF8000800000020D12F0008C0
:10507000346B00085C000020F93000083A6B00082F
:10508000256B00084E4F5420434F52524543540065
:1050900052652D696E7075743A0000004174746534
:1050A0006D70743A2025640050415353454400000C
:1050B0002DE9F047154D9A4691468846044601274A
:1050C000FCF71CF80646FCF719F8801B80084A28F4
:1050D0000BD82846FDF746FE0028F4D0A042F2D1B6
:1050E0000A20FBF74FFE0137EAE727F000400428CB
:1050F00005D0032805D0022808BF444602E05446E4
:1051000000E04C462046BDE8F08700BFC00100200B
:105110002DE9F04385B00446FDF750FFDFF86080CD
:105120000A200021C0476D46627FDFF8609015A11C
:105130002846C847164E174F284601223146B84721
:105140000A201E21C04714A128462246C8472846E7
:1051500031460122B8470A203221C04704F11E021D
:1051600010A12846C847284631460122B847FDF716
:10517000DFFF40F6B830FBF705FE05B0BDE8F08371
:10518000D12F000849443A2025640000E5010008B9
:105190005C000020F93000084E616D653A202573EF
:1051A000000000004D4E563A20257300B0B5B54DB5
:1051B00004462846214601220A23FDF749FB002820
:1051C000F7D1B0BD2DE9F04F89B03A4C38480122F3
:1051D0002146FDF791FF0A203221FDF7F9FE36A0A6
:1051E00021460122FDF788FFDFF8E090DFF808B1E3
:1051F0000DF113060FF2D80A4FF0000809F12D0542
:105200000EE03AA059460122FDF776FFFDF790FF28
:105210004FF4FA70FBF7B6FD89F80280FDF7CEFE79
:105220002846FEF755F950B114200021FDF7D0FEB5
:105230000A203221FDF7CCFEFDF77AFFF0E7FDF7FB
:10524000BDFE4F4617F82D2FB878F9783C797B785A
:105250008DE8130030465146FAF7C4FF0A20322188
:10526000FDF7B6FE134930460122FDF745FFFDF775
:105270005FFF791F3846FEF747F907460F201921CF
:10528000FDF7A6FE002FBCD11B491CA00122012462
:10529000FDF732FFFDF74CFF4FF4FA70FBF772FD9C
:1052A000FDF78CFE89F8024009B0BDE8F08F00BF21
:1052B000346B00085C00002054617020796F7572B7
:1052C0002049442063617264210000000000002036
:1052D00049443A203078253032582530325825302C
:1052E0003258253032582530325800004E4F542065
:1052F000504153534544000054000020494420507D
:105300004153534544000000BCB50C4C20680130AB
:1053100018BFBCBDFEF7DEFCFEF782FBFBF7C4FB4B
:10532000074D05F13200FEF7B5FB02460020AB68E1
:10533000044900902046FBF791FCBCBD1AF8000818
:105340000000002000000108E0B503460A208DF8A7
:1053500007208DF806100DF106020090104819463E
:105360000223FCF749F88CBD10B5C2B0844600207A
:105370000DF1080E8DF8081003E0545C7144013003
:105380004C70C1B29942F8D30A2002AA614600903B
:10539000581C83B20248FCF72FF842B010BD00BF82
:1053A0000003002010B5084C4FF483712180E07099
:1053B000000A0421A070204600F026F82046FEF7DF
:1053C00059FE607A10BD00BF3001002002A30246E2
:1053D00008461946FAF706BF253036580000000087
:1053E00080B5FDF7EBFD1E201421FDF7F1FD04480B
:1053F00004490122FDF780FEBDE88040FDF798BE1C
:105400002C6B0008540000202DE9F041DFF8588093
:105410000546EF200C46C0470120C047FF20C0478B
:10542000FF20C047FF20C047FF20C0470120C047E2
:10543000A71C380AC047FEB23046C04706EB17200B
:10544000461C06E0287800F011F815F8010B013C25
:105450000644002CF6D1C6F3072000F007F8F0B29E
:10546000BDE8F04100F002B86D540008E0B58DF8D9
:10547000070004480DF1070101224FF47A73FDF78C
:10548000B1FA8CBDB00200202DE9F04103AF044613
:1054900001F10800234900EA0105FDF78FFDADEB9E
:1054A0000505AD462046FBF729F8421C2846214653
:1054B000FBF743F800200021FDF78AFD2846002273
:1054C000FDF71AFEFDF734FEA7F10C04A546BDE872
:1054D000F08100BF2DE9F04703AF064601F1080057
:1054E00010499846154600EA0104FDF767FDADEB4B
:1054F0000404A5463046FBF701F8421C204631461D
:10550000FBF71BF8A8B21FFA88F1FDF761FD2046F2
:105510000022FDF7F1FDFDF70BFEA7F10C04A546F7
:10552000BDE8F087F8FF010030380A2801D20120D9
:1055300070470020704730313233343536373839D0
:1055400041424344454640305800303132333435CF
:10555000363738396162636465664030780004002C
:105560000008000000000000000200010000100020
:105570000000000000000001020304060708090003
:105580000000000102030400000000000000000011
:10559000000000000000000000000000000000000B
:1055A0000000000000000000000000000000000CEF
:1055B000000C000C000C000C000C000C000C000C8B
:1055C000000C000C0000000C000C000000000000AB
:1055D0000000001B001B001B001B001B0000000044
:1055E00000000000000000000000000000000000BB
:1055F0000000000000008019801980198019C07F08
:10560000C07F80190033C07FC07F00330033003378
:1056100000330000000000000000001E003F807505
:1056200080650074003C001E000780058065806571
:105630008075003F001E00040004000000000070A0
:1056400000D840D8C0D880D900730006000C801B59
:10565000C036C066C046C0068003000000000000DF
:105660000000001E003F003300330033001E000C1A
:10567000C03CC066806380618063C03E801C0000C7
:10568000000000000000000C000C000C000C000CDE
:10569000000000000000000000000000000000000A
:1056A0000000000000000000800000010003000670
:1056B00000060004000C000C000C000C000C000C98
:1056C0000004000600060003000180000020001016
:1056D0000018000C000C000400060006000600067E
:1056E000000600060004000C000C0018001000204A
:1056F0000000000C002D003F001E003300000000E1
:105700000000000000000000000000000000000099
:1057100000000000000000000000000C000C000C65
:10572000000CC0FFC0FF000C000C000C000C0000BF
:105730000000000000000000000000000000000069
:105740000000000000000000000000000000000059
:105750000000000C000C0004000400080000000021
:105760000000000000000000000000000000001E1B
:10577000001E00000000000000000000000000000B
:105780000000000000000000000000000000000019
:1057900000000000000000000000000C000C0000F1
:1057A00000000000000000030003000300060006E4
:1057B00000060006000C000C000C000C001800187D
:1057C00000180000000000000000001E003F003331
:1057D000806180618061806D806D806180618061A9
:1057E0000033003F001E0000000000000000000623
:1057F000000E001E00360026000600060006000609
:10580000000600060006000600060000000000007A
:105810000000001E003F80738061806180010003F2
:105820000006000C001800300060807F807F0000C0
:10583000000000000000001C003E00630063000345
:10584000000E000E00038001800180618073003F24
:10585000001E00000000000000000006000E000E08
:10586000001E001E0016003600360066807F807F16
:105870000006000600060000000000000000007F97
:10588000007F006000600060006E007F8063800128
:10589000800180618073003F001E00000000000056
:1058A0000000001E003F803380610060006E007FBA
:1058B00080738061806180618033003F001E000042
:1058C000000000000000807F807F80010003000353
:1058D00000060006000C000C000C00080018001860
:1058E00000180000000000000000001E003F806360
:1058F000806180610021001E003F806180618061C5
:105900008061003F001E0000000000000000001E3B
:10591000003F00738061806180618073803F801DE3
:10592000800180610073003F001E00000000000045
:1059300000000000000000000000000C000C00004F
:1059400000000000000000000000000C000C00003F
:105950000000000000000000000000000000000047
:10596000000C000C00000000000000000000000C13
:10597000000C00040004000800000000000000000B
:1059800080008003000E003800600038000E8003A5
:105990008000000000000000000000000000000087
:1059A000000000000000807F807F00000000807FFA
:1059B000807F0000000000000000000000000000E8
:1059C000000000000000000000400070001C000704
:1059D00080010007001C0070004000000000000073
:1059E000000000000000001F803FC071C060C000C8
:1059F000C00180030007000E000C000C0000000C2A
:105A0000000C0000000000000000001E003F80317C
:105A100080718063806F806D806D806F80670060B3
:105A20000032003E001C0000000000000000000EDC
:105A3000000E001B001B001B001B80318031803FCB
:105A4000803F8031C060C060C06000000000000086
:105A50000000007C007E0063006300630063007E42
:105A6000007E0063806180618063007F007E0000B3
:105A7000000000000000001E003F803180610060D7
:105A80000060006000600060006080618031003F65
:105A9000001E0000000000000000007C007F00638A
:105AA000806380618061806180618061806100636A
:105AB0000063007E007C0000000000000000807F8A
:105AC000807F0060006000600060007F007F0060F9
:105AD000006000600060807F807F000000000000A8
